{
  "_format": "hh-sol-artifact-1",
  "contractName": "Oasis_NFTMarketplace",
  "sourceName": "contracts/Oasis_NFTMarketplace.sol",
  "abi": [
    {
      "inputs": [],
      "stateMutability": "nonpayable",
      "type": "constructor"
    },
    {
      "anonymous": false,
      "inputs": [
        {
          "indexed": true,
          "internalType": "address",
          "name": "owner",
          "type": "address"
        },
        {
          "indexed": true,
          "internalType": "address",
          "name": "approved",
          "type": "address"
        },
        {
          "indexed": true,
          "internalType": "uint256",
          "name": "tokenId",
          "type": "uint256"
        }
      ],
      "name": "Approval",
      "type": "event"
    },
    {
      "anonymous": false,
      "inputs": [
        {
          "indexed": true,
          "internalType": "address",
          "name": "owner",
          "type": "address"
        },
        {
          "indexed": true,
          "internalType": "address",
          "name": "operator",
          "type": "address"
        },
        {
          "indexed": false,
          "internalType": "bool",
          "name": "approved",
          "type": "bool"
        }
      ],
      "name": "ApprovalForAll",
      "type": "event"
    },
    {
      "anonymous": false,
      "inputs": [
        {
          "indexed": false,
          "internalType": "uint256",
          "name": "_fromTokenId",
          "type": "uint256"
        },
        {
          "indexed": false,
          "internalType": "uint256",
          "name": "_toTokenId",
          "type": "uint256"
        }
      ],
      "name": "BatchMetadataUpdate",
      "type": "event"
    },
    {
      "anonymous": false,
      "inputs": [
        {
          "indexed": true,
          "internalType": "uint256",
          "name": "tokenId",
          "type": "uint256"
        },
        {
          "indexed": false,
          "internalType": "address",
          "name": "seller",
          "type": "address"
        },
        {
          "indexed": false,
          "internalType": "address",
          "name": "owner",
          "type": "address"
        },
        {
          "indexed": true,
          "internalType": "uint256",
          "name": "price",
          "type": "uint256"
        },
        {
          "indexed": false,
          "internalType": "bool",
          "name": "sold",
          "type": "bool"
        }
      ],
      "name": "MarketItemCreated",
      "type": "event"
    },
    {
      "anonymous": false,
      "inputs": [
        {
          "indexed": false,
          "internalType": "uint256",
          "name": "_tokenId",
          "type": "uint256"
        }
      ],
      "name": "MetadataUpdate",
      "type": "event"
    },
    {
      "anonymous": false,
      "inputs": [
        {
          "indexed": true,
          "internalType": "address",
          "name": "from",
          "type": "address"
        },
        {
          "indexed": true,
          "internalType": "address",
          "name": "to",
          "type": "address"
        },
        {
          "indexed": true,
          "internalType": "uint256",
          "name": "tokenId",
          "type": "uint256"
        }
      ],
      "name": "Transfer",
      "type": "event"
    },
    {
      "anonymous": false,
      "inputs": [
        {
          "indexed": false,
          "internalType": "address",
          "name": "winner",
          "type": "address"
        },
        {
          "indexed": false,
          "internalType": "uint256",
          "name": "amount",
          "type": "uint256"
        }
      ],
      "name": "auctionEnded",
      "type": "event"
    },
    {
      "anonymous": false,
      "inputs": [
        {
          "indexed": false,
          "internalType": "address",
          "name": "payer",
          "type": "address"
        },
        {
          "indexed": false,
          "internalType": "uint256",
          "name": "amount",
          "type": "uint256"
        }
      ],
      "name": "highestPriceIncrease",
      "type": "event"
    },
    {
      "inputs": [
        {
          "internalType": "address",
          "name": "to",
          "type": "address"
        },
        {
          "internalType": "uint256",
          "name": "tokenId",
          "type": "uint256"
        }
      ],
      "name": "approve",
      "outputs": [],
      "stateMutability": "nonpayable",
      "type": "function"
    },
    {
      "inputs": [
        {
          "internalType": "uint256",
          "name": "_tokenId",
          "type": "uint256"
        }
      ],
      "name": "auctionEnd",
      "outputs": [
        {
          "internalType": "bool",
          "name": "",
          "type": "bool"
        }
      ],
      "stateMutability": "payable",
      "type": "function"
    },
    {
      "inputs": [
        {
          "internalType": "uint256",
          "name": "_auctionId",
          "type": "uint256"
        }
      ],
      "name": "auctionWithdraw",
      "outputs": [
        {
          "internalType": "bool",
          "name": "",
          "type": "bool"
        }
      ],
      "stateMutability": "nonpayable",
      "type": "function"
    },
    {
      "inputs": [
        {
          "internalType": "address",
          "name": "owner",
          "type": "address"
        }
      ],
      "name": "balanceOf",
      "outputs": [
        {
          "internalType": "uint256",
          "name": "",
          "type": "uint256"
        }
      ],
      "stateMutability": "view",
      "type": "function"
    },
    {
      "inputs": [
        {
          "internalType": "uint256",
          "name": "tokenId",
          "type": "uint256"
        }
      ],
      "name": "bid",
      "outputs": [],
      "stateMutability": "payable",
      "type": "function"
    },
    {
      "inputs": [
        {
          "internalType": "uint256",
          "name": "tokenId",
          "type": "uint256"
        },
        {
          "internalType": "uint256",
          "name": "time",
          "type": "uint256"
        },
        {
          "internalType": "uint256",
          "name": "startPrice",
          "type": "uint256"
        }
      ],
      "name": "createAuction",
      "outputs": [],
      "stateMutability": "payable",
      "type": "function"
    },
    {
      "inputs": [
        {
          "internalType": "uint256",
          "name": "tokenId",
          "type": "uint256"
        }
      ],
      "name": "createMarketSale",
      "outputs": [],
      "stateMutability": "payable",
      "type": "function"
    },
    {
      "inputs": [
        {
          "internalType": "string",
          "name": "tokenURI",
          "type": "string"
        },
        {
          "internalType": "uint256",
          "name": "price",
          "type": "uint256"
        }
      ],
      "name": "createToken",
      "outputs": [
        {
          "internalType": "uint256",
          "name": "",
          "type": "uint256"
        }
      ],
      "stateMutability": "payable",
      "type": "function"
    },
    {
      "inputs": [],
      "name": "fetchItemsListed",
      "outputs": [
        {
          "components": [
            {
              "internalType": "uint256",
              "name": "tokenId",
              "type": "uint256"
            },
            {
              "internalType": "address payable",
              "name": "seller",
              "type": "address"
            },
            {
              "internalType": "address payable",
              "name": "owner",
              "type": "address"
            },
            {
              "internalType": "uint256",
              "name": "price",
              "type": "uint256"
            },
            {
              "components": [
                {
                  "internalType": "uint256",
                  "name": "AuctionId",
                  "type": "uint256"
                },
                {
                  "internalType": "uint256",
                  "name": "acutionEndTime",
                  "type": "uint256"
                },
                {
                  "internalType": "uint256",
                  "name": "highestPrice",
                  "type": "uint256"
                },
                {
                  "internalType": "address",
                  "name": "highestPayer",
                  "type": "address"
                },
                {
                  "internalType": "bool",
                  "name": "ended",
                  "type": "bool"
                }
              ],
              "internalType": "struct Oasis_NFTMarketplace.AuctionSession",
              "name": "auction",
              "type": "tuple"
            },
            {
              "internalType": "bool",
              "name": "sold",
              "type": "bool"
            }
          ],
          "internalType": "struct Oasis_NFTMarketplace.MarketItem[]",
          "name": "",
          "type": "tuple[]"
        }
      ],
      "stateMutability": "view",
      "type": "function"
    },
    {
      "inputs": [],
      "name": "fetchMarketItem",
      "outputs": [
        {
          "components": [
            {
              "internalType": "uint256",
              "name": "tokenId",
              "type": "uint256"
            },
            {
              "internalType": "address payable",
              "name": "seller",
              "type": "address"
            },
            {
              "internalType": "address payable",
              "name": "owner",
              "type": "address"
            },
            {
              "internalType": "uint256",
              "name": "price",
              "type": "uint256"
            },
            {
              "components": [
                {
                  "internalType": "uint256",
                  "name": "AuctionId",
                  "type": "uint256"
                },
                {
                  "internalType": "uint256",
                  "name": "acutionEndTime",
                  "type": "uint256"
                },
                {
                  "internalType": "uint256",
                  "name": "highestPrice",
                  "type": "uint256"
                },
                {
                  "internalType": "address",
                  "name": "highestPayer",
                  "type": "address"
                },
                {
                  "internalType": "bool",
                  "name": "ended",
                  "type": "bool"
                }
              ],
              "internalType": "struct Oasis_NFTMarketplace.AuctionSession",
              "name": "auction",
              "type": "tuple"
            },
            {
              "internalType": "bool",
              "name": "sold",
              "type": "bool"
            }
          ],
          "internalType": "struct Oasis_NFTMarketplace.MarketItem[]",
          "name": "",
          "type": "tuple[]"
        }
      ],
      "stateMutability": "view",
      "type": "function"
    },
    {
      "inputs": [],
      "name": "fetchMyNFT",
      "outputs": [
        {
          "components": [
            {
              "internalType": "uint256",
              "name": "tokenId",
              "type": "uint256"
            },
            {
              "internalType": "address payable",
              "name": "seller",
              "type": "address"
            },
            {
              "internalType": "address payable",
              "name": "owner",
              "type": "address"
            },
            {
              "internalType": "uint256",
              "name": "price",
              "type": "uint256"
            },
            {
              "components": [
                {
                  "internalType": "uint256",
                  "name": "AuctionId",
                  "type": "uint256"
                },
                {
                  "internalType": "uint256",
                  "name": "acutionEndTime",
                  "type": "uint256"
                },
                {
                  "internalType": "uint256",
                  "name": "highestPrice",
                  "type": "uint256"
                },
                {
                  "internalType": "address",
                  "name": "highestPayer",
                  "type": "address"
                },
                {
                  "internalType": "bool",
                  "name": "ended",
                  "type": "bool"
                }
              ],
              "internalType": "struct Oasis_NFTMarketplace.AuctionSession",
              "name": "auction",
              "type": "tuple"
            },
            {
              "internalType": "bool",
              "name": "sold",
              "type": "bool"
            }
          ],
          "internalType": "struct Oasis_NFTMarketplace.MarketItem[]",
          "name": "",
          "type": "tuple[]"
        }
      ],
      "stateMutability": "view",
      "type": "function"
    },
    {
      "inputs": [
        {
          "internalType": "uint256",
          "name": "tokenId",
          "type": "uint256"
        }
      ],
      "name": "getApproved",
      "outputs": [
        {
          "internalType": "address",
          "name": "",
          "type": "address"
        }
      ],
      "stateMutability": "view",
      "type": "function"
    },
    {
      "inputs": [],
      "name": "getListingPrice",
      "outputs": [
        {
          "internalType": "uint256",
          "name": "",
          "type": "uint256"
        }
      ],
      "stateMutability": "view",
      "type": "function"
    },
    {
      "inputs": [
        {
          "internalType": "uint256",
          "name": "_tokenId",
          "type": "uint256"
        }
      ],
      "name": "getSingleNFT",
      "outputs": [
        {
          "components": [
            {
              "internalType": "uint256",
              "name": "tokenId",
              "type": "uint256"
            },
            {
              "internalType": "address payable",
              "name": "seller",
              "type": "address"
            },
            {
              "internalType": "address payable",
              "name": "owner",
              "type": "address"
            },
            {
              "internalType": "uint256",
              "name": "price",
              "type": "uint256"
            },
            {
              "components": [
                {
                  "internalType": "uint256",
                  "name": "AuctionId",
                  "type": "uint256"
                },
                {
                  "internalType": "uint256",
                  "name": "acutionEndTime",
                  "type": "uint256"
                },
                {
                  "internalType": "uint256",
                  "name": "highestPrice",
                  "type": "uint256"
                },
                {
                  "internalType": "address",
                  "name": "highestPayer",
                  "type": "address"
                },
                {
                  "internalType": "bool",
                  "name": "ended",
                  "type": "bool"
                }
              ],
              "internalType": "struct Oasis_NFTMarketplace.AuctionSession",
              "name": "auction",
              "type": "tuple"
            },
            {
              "internalType": "bool",
              "name": "sold",
              "type": "bool"
            }
          ],
          "internalType": "struct Oasis_NFTMarketplace.MarketItem[]",
          "name": "",
          "type": "tuple[]"
        }
      ],
      "stateMutability": "view",
      "type": "function"
    },
    {
      "inputs": [
        {
          "internalType": "address",
          "name": "owner",
          "type": "address"
        },
        {
          "internalType": "address",
          "name": "operator",
          "type": "address"
        }
      ],
      "name": "isApprovedForAll",
      "outputs": [
        {
          "internalType": "bool",
          "name": "",
          "type": "bool"
        }
      ],
      "stateMutability": "view",
      "type": "function"
    },
    {
      "inputs": [],
      "name": "name",
      "outputs": [
        {
          "internalType": "string",
          "name": "",
          "type": "string"
        }
      ],
      "stateMutability": "view",
      "type": "function"
    },
    {
      "inputs": [
        {
          "internalType": "uint256",
          "name": "tokenId",
          "type": "uint256"
        }
      ],
      "name": "ownerOf",
      "outputs": [
        {
          "internalType": "address",
          "name": "",
          "type": "address"
        }
      ],
      "stateMutability": "view",
      "type": "function"
    },
    {
      "inputs": [
        {
          "internalType": "uint256",
          "name": "tokenId",
          "type": "uint256"
        },
        {
          "internalType": "uint256",
          "name": "price",
          "type": "uint256"
        }
      ],
      "name": "reSetPrice",
      "outputs": [],
      "stateMutability": "payable",
      "type": "function"
    },
    {
      "inputs": [
        {
          "internalType": "uint256",
          "name": "tokenId",
          "type": "uint256"
        },
        {
          "internalType": "uint256",
          "name": "price",
          "type": "uint256"
        }
      ],
      "name": "resellToken",
      "outputs": [],
      "stateMutability": "payable",
      "type": "function"
    },
    {
      "inputs": [
        {
          "internalType": "address",
          "name": "from",
          "type": "address"
        },
        {
          "internalType": "address",
          "name": "to",
          "type": "address"
        },
        {
          "internalType": "uint256",
          "name": "tokenId",
          "type": "uint256"
        }
      ],
      "name": "safeTransferFrom",
      "outputs": [],
      "stateMutability": "nonpayable",
      "type": "function"
    },
    {
      "inputs": [
        {
          "internalType": "address",
          "name": "from",
          "type": "address"
        },
        {
          "internalType": "address",
          "name": "to",
          "type": "address"
        },
        {
          "internalType": "uint256",
          "name": "tokenId",
          "type": "uint256"
        },
        {
          "internalType": "bytes",
          "name": "data",
          "type": "bytes"
        }
      ],
      "name": "safeTransferFrom",
      "outputs": [],
      "stateMutability": "nonpayable",
      "type": "function"
    },
    {
      "inputs": [
        {
          "internalType": "address",
          "name": "operator",
          "type": "address"
        },
        {
          "internalType": "bool",
          "name": "approved",
          "type": "bool"
        }
      ],
      "name": "setApprovalForAll",
      "outputs": [],
      "stateMutability": "nonpayable",
      "type": "function"
    },
    {
      "inputs": [
        {
          "internalType": "bytes4",
          "name": "interfaceId",
          "type": "bytes4"
        }
      ],
      "name": "supportsInterface",
      "outputs": [
        {
          "internalType": "bool",
          "name": "",
          "type": "bool"
        }
      ],
      "stateMutability": "view",
      "type": "function"
    },
    {
      "inputs": [],
      "name": "symbol",
      "outputs": [
        {
          "internalType": "string",
          "name": "",
          "type": "string"
        }
      ],
      "stateMutability": "view",
      "type": "function"
    },
    {
      "inputs": [
        {
          "internalType": "uint256",
          "name": "tokenId",
          "type": "uint256"
        }
      ],
      "name": "tokenURI",
      "outputs": [
        {
          "internalType": "string",
          "name": "",
          "type": "string"
        }
      ],
      "stateMutability": "view",
      "type": "function"
    },
    {
      "inputs": [
        {
          "internalType": "address",
          "name": "from",
          "type": "address"
        },
        {
          "internalType": "address",
          "name": "to",
          "type": "address"
        },
        {
          "internalType": "uint256",
          "name": "tokenId",
          "type": "uint256"
        }
      ],
      "name": "transferFrom",
      "outputs": [],
      "stateMutability": "nonpayable",
      "type": "function"
    }
  ],
  "bytecode": "0x608060405266038d7ea4c68000600a553480156200001c57600080fd5b506040518060400160405280600b81526020017f4f6173697320746f6b656e0000000000000000000000000000000000000000008152506040518060400160405280600381526020017f4f4153000000000000000000000000000000000000000000000000000000000081525081600090816200009a919062000370565b508060019081620000ac919062000370565b50505033600b60006101000a81548173ffffffffffffffffffffffffffffffffffffffff021916908373ffffffffffffffffffffffffffffffffffffffff16021790555062000457565b600081519050919050565b7f4e487b7100000000000000000000000000000000000000000000000000000000600052604160045260246000fd5b7f4e487b7100000000000000000000000000000000000000000000000000000000600052602260045260246000fd5b600060028204905060018216806200017857607f821691505b6020821081036200018e576200018d62000130565b5b50919050565b60008190508160005260206000209050919050565b60006020601f8301049050919050565b600082821b905092915050565b600060088302620001f87fffffffffffffffffffffffffffffffffffffffffffffffffffffffffffffffff82620001b9565b620002048683620001b9565b95508019841693508086168417925050509392505050565b6000819050919050565b6000819050919050565b6000620002516200024b62000245846200021c565b62000226565b6200021c565b9050919050565b6000819050919050565b6200026d8362000230565b620002856200027c8262000258565b848454620001c6565b825550505050565b600090565b6200029c6200028d565b620002a981848462000262565b505050565b5b81811015620002d157620002c560008262000292565b600181019050620002af565b5050565b601f8211156200032057620002ea8162000194565b620002f584620001a9565b8101602085101562000305578190505b6200031d6200031485620001a9565b830182620002ae565b50505b505050565b600082821c905092915050565b6000620003456000198460080262000325565b1980831691505092915050565b600062000360838362000332565b9150826002028217905092915050565b6200037b82620000f6565b67ffffffffffffffff81111562000397576200039662000101565b5b620003a382546200015f565b620003b0828285620002d5565b600060209050601f831160018114620003e85760008415620003d3578287015190505b620003df858262000352565b8655506200044f565b601f198416620003f88662000194565b60005b828110156200042257848901518255600182019150602085019450602081019050620003fb565b868310156200044257848901516200043e601f89168262000332565b8355505b6001600288020188555050505b505050505050565b615aaf80620004676000396000f3fe6080604052600436106101815760003560e01c806372b3b620116100d1578063b88d4fde1161008a578063c87b56dd11610064578063c87b56dd14610577578063cda4beef146105b4578063e219fc75146105d0578063e985e9c5146105ec57610181565b8063b88d4fde14610507578063be9af53614610530578063c18763f71461054c57610181565b806372b3b620146103ff5780638fafd0211461042f57806395d89b411461045a5780639c490c0614610485578063a22cb465146104a1578063b10d513f146104ca57610181565b806332246e9f1161013e57806345f8fa801161011857806345f8fa801461031d5780636352211e146103485780636718afb31461038557806370a08231146103c257610181565b806332246e9f146102a857806342842e0e146102d8578063454a2ab31461030157610181565b806301ffc9a71461018657806306fdde03146101c3578063081812fc146101ee578063095ea7b31461022b57806312e855851461025457806323b872dd1461027f575b600080fd5b34801561019257600080fd5b506101ad60048036038101906101a89190614010565b610629565b6040516101ba9190614058565b60405180910390f35b3480156101cf57600080fd5b506101d861068a565b6040516101e59190614103565b60405180910390f35b3480156101fa57600080fd5b506102156004803603810190610210919061415b565b61071c565b60405161022291906141c9565b60405180910390f35b34801561023757600080fd5b50610252600480360381019061024d9190614210565b610762565b005b34801561026057600080fd5b50610269610879565b604051610276919061425f565b60405180910390f35b34801561028b57600080fd5b506102a660048036038101906102a1919061427a565b610883565b005b6102c260048036038101906102bd919061415b565b6108e3565b6040516102cf9190614058565b60405180910390f35b3480156102e457600080fd5b506102ff60048036038101906102fa919061427a565b610d7e565b005b61031b6004803603810190610316919061415b565b610d9e565b005b34801561032957600080fd5b5061033261118f565b60405161033f91906144b0565b60405180910390f35b34801561035457600080fd5b5061036f600480360381019061036a919061415b565b61151e565b60405161037c91906141c9565b60405180910390f35b34801561039157600080fd5b506103ac60048036038101906103a7919061415b565b6115a4565b6040516103b99190614058565b60405180910390f35b3480156103ce57600080fd5b506103e960048036038101906103e491906144d2565b6116fd565b6040516103f6919061425f565b60405180910390f35b61041960048036038101906104149190614634565b6117b4565b604051610426919061425f565b60405180910390f35b34801561043b57600080fd5b50610444611834565b60405161045191906144b0565b60405180910390f35b34801561046657600080fd5b5061046f611b3f565b60405161047c9190614103565b60405180910390f35b61049f600480360381019061049a9190614690565b611bd1565b005b3480156104ad57600080fd5b506104c860048036038101906104c391906146fc565b611c94565b005b3480156104d657600080fd5b506104f160048036038101906104ec919061415b565b611caa565b6040516104fe91906144b0565b60405180910390f35b34801561051357600080fd5b5061052e600480360381019061052991906147dd565b611ec9565b005b61054a6004803603810190610545919061415b565b611f2b565b005b34801561055857600080fd5b506105616120f8565b60405161056e91906144b0565b60405180910390f35b34801561058357600080fd5b5061059e6004803603810190610599919061415b565b612487565b6040516105ab9190614103565b60405180910390f35b6105ce60048036038101906105c99190614860565b612599565b005b6105ea60048036038101906105e59190614690565b612962565b005b3480156105f857600080fd5b50610613600480360381019061060e91906148b3565b612b57565b6040516106209190614058565b60405180910390f35b6000634906490660e01b7bffffffffffffffffffffffffffffffffffffffffffffffffffffffff1916827bffffffffffffffffffffffffffffffffffffffffffffffffffffffff19161480610683575061068282612beb565b5b9050919050565b60606000805461069990614922565b80601f01602080910402602001604051908101604052809291908181526020018280546106c590614922565b80156107125780601f106106e757610100808354040283529160200191610712565b820191906000526020600020905b8154815290600101906020018083116106f557829003601f168201915b5050505050905090565b600061072782612ccd565b6004600083815260200190815260200160002060009054906101000a900473ffffffffffffffffffffffffffffffffffffffff169050919050565b600061076d8261151e565b90508073ffffffffffffffffffffffffffffffffffffffff168373ffffffffffffffffffffffffffffffffffffffff16036107dd576040517f08c379a00000000000000000000000000000000000000000000000000000000081526004016107d4906149c5565b60405180910390fd5b8073ffffffffffffffffffffffffffffffffffffffff166107fc612d18565b73ffffffffffffffffffffffffffffffffffffffff16148061082b575061082a81610825612d18565b612b57565b5b61086a576040517f08c379a000000000000000000000000000000000000000000000000000000000815260040161086190614a57565b60405180910390fd5b6108748383612d20565b505050565b6000600a54905090565b61089461088e612d18565b82612dd9565b6108d3576040517f08c379a00000000000000000000000000000000000000000000000000000000081526004016108ca90614ae9565b60405180910390fd5b6108de838383612e6e565b505050565b6000801515600c600084815260200190815260200160002060040160030160149054906101000a900460ff1615151461091b57600080fd5b600c6000838152602001908152602001600020600401600101544211610976576040517f08c379a000000000000000000000000000000000000000000000000000000000815260040161096d90614b55565b60405180910390fd5b6001600c600084815260200190815260200160002060040160030160146101000a81548160ff021916908315150217905550600c600083815260200190815260200160002060010160009054906101000a900473ffffffffffffffffffffffffffffffffffffffff1673ffffffffffffffffffffffffffffffffffffffff16600c600084815260200190815260200160002060040160030160009054906101000a900473ffffffffffffffffffffffffffffffffffffffff1673ffffffffffffffffffffffffffffffffffffffff1603610a8757600c600083815260200190815260200160002060040160020154600c60008481526020019081526020016000206003018190555060019050610d79565b7f6e0e2174dbf7b77c08b6f9a2799b9feda84a6d54a5644864582040100a47d4c5600c600084815260200190815260200160002060040160030160009054906101000a900473ffffffffffffffffffffffffffffffffffffffff16600c600085815260200190815260200160002060040160020154604051610b0a929190614b75565b60405180910390a1600c600083815260200190815260200160002060010160009054906101000a900473ffffffffffffffffffffffffffffffffffffffff1673ffffffffffffffffffffffffffffffffffffffff166108fc600c6000858152602001908152602001600020600401600201549081150290604051600060405180830381858888f19350505050158015610ba7573d6000803e3d6000fd5b50600c600083815260200190815260200160002060040160030160009054906101000a900473ffffffffffffffffffffffffffffffffffffffff16600c600084815260200190815260200160002060020160006101000a81548173ffffffffffffffffffffffffffffffffffffffff021916908373ffffffffffffffffffffffffffffffffffffffff1602179055506001600c600084815260200190815260200160002060080160006101000a81548160ff0219169083151502179055506000600c600084815260200190815260200160002060010160006101000a81548173ffffffffffffffffffffffffffffffffffffffff021916908373ffffffffffffffffffffffffffffffffffffffff160217905550610cff30600c600085815260200190815260200160002060040160030160009054906101000a900473ffffffffffffffffffffffffffffffffffffffff1684612e6e565b600b60009054906101000a900473ffffffffffffffffffffffffffffffffffffffff1673ffffffffffffffffffffffffffffffffffffffff166108fc600a549081150290604051600060405180830381858888f19350505050158015610d69573d6000803e3d6000fd5b50610d746008613167565b600190505b919050565b610d9983838360405180602001604052806000815250611ec9565b505050565b3373ffffffffffffffffffffffffffffffffffffffff16600c600083815260200190815260200160002060020160009054906101000a900473ffffffffffffffffffffffffffffffffffffffff1673ffffffffffffffffffffffffffffffffffffffff1614158015610e7257503373ffffffffffffffffffffffffffffffffffffffff16600c600083815260200190815260200160002060010160009054906101000a900473ffffffffffffffffffffffffffffffffffffffff1673ffffffffffffffffffffffffffffffffffffffff1614155b610eb1576040517f08c379a0000000000000000000000000000000000000000000000000000000008152600401610ea890614c10565b60405180910390fd5b600c600082815260200190815260200160002060040160010154421115610f0d576040517f08c379a0000000000000000000000000000000000000000000000000000000008152600401610f0490614c7c565b60405180910390fd5b600c6000828152602001908152602001600020600401600201543411610f68576040517f08c379a0000000000000000000000000000000000000000000000000000000008152600401610f5f90614d0e565b60405180910390fd5b600c600082815260200190815260200160002060010160009054906101000a900473ffffffffffffffffffffffffffffffffffffffff1673ffffffffffffffffffffffffffffffffffffffff16600c600083815260200190815260200160002060040160030160009054906101000a900473ffffffffffffffffffffffffffffffffffffffff1673ffffffffffffffffffffffffffffffffffffffff16146110dd57600c600082815260200190815260200160002060040160020154600d6000600c60008581526020019081526020016000206004016000015481526020019081526020016000206000600c600085815260200190815260200160002060040160030160009054906101000a900473ffffffffffffffffffffffffffffffffffffffff1673ffffffffffffffffffffffffffffffffffffffff1673ffffffffffffffffffffffffffffffffffffffff16815260200190815260200160002060008282546110d59190614d5d565b925050819055505b34600c60008381526020019081526020016000206004016002018190555033600c600083815260200190815260200160002060040160030160006101000a81548173ffffffffffffffffffffffffffffffffffffffff021916908373ffffffffffffffffffffffffffffffffffffffff1602179055507fb091cbf32011e16665d2f9876bf7a25e29544834b578c6cdd39ac1e4676954313334604051611184929190614b75565b60405180910390a150565b6060600061119d600761317d565b905060008060005b83811015611245573373ffffffffffffffffffffffffffffffffffffffff16600c60006001846111d59190614d5d565b815260200190815260200160002060010160009054906101000a900473ffffffffffffffffffffffffffffffffffffffff1673ffffffffffffffffffffffffffffffffffffffff16036112325760018361122f9190614d5d565b92505b808061123d90614d91565b9150506111a5565b5060008267ffffffffffffffff81111561126257611261614509565b5b60405190808252806020026020018201604052801561129b57816020015b611288613ef3565b8152602001906001900390816112805790505b50905060005b84811015611513573373ffffffffffffffffffffffffffffffffffffffff16600c60006001846112d19190614d5d565b815260200190815260200160002060010160009054906101000a900473ffffffffffffffffffffffffffffffffffffffff1673ffffffffffffffffffffffffffffffffffffffff160361150057600060018261132d9190614d5d565b90506000600c60008381526020019081526020016000209050806040518060c0016040529081600082015481526020016001820160009054906101000a900473ffffffffffffffffffffffffffffffffffffffff1673ffffffffffffffffffffffffffffffffffffffff1673ffffffffffffffffffffffffffffffffffffffff1681526020016002820160009054906101000a900473ffffffffffffffffffffffffffffffffffffffff1673ffffffffffffffffffffffffffffffffffffffff1673ffffffffffffffffffffffffffffffffffffffff16815260200160038201548152602001600482016040518060a00160405290816000820154815260200160018201548152602001600282015481526020016003820160009054906101000a900473ffffffffffffffffffffffffffffffffffffffff1673ffffffffffffffffffffffffffffffffffffffff1673ffffffffffffffffffffffffffffffffffffffff1681526020016003820160149054906101000a900460ff16151515158152505081526020016008820160009054906101000a900460ff1615151515815250508486815181106114e3576114e2614dd9565b5b60200260200101819052506001856114fb9190614d5d565b945050505b808061150b90614d91565b9150506112a1565b508094505050505090565b60008061152a8361318b565b9050600073ffffffffffffffffffffffffffffffffffffffff168173ffffffffffffffffffffffffffffffffffffffff160361159b576040517f08c379a000000000000000000000000000000000000000000000000000000000815260040161159290614e54565b60405180910390fd5b80915050919050565b600080600d600084815260200190815260200160002060003373ffffffffffffffffffffffffffffffffffffffff1673ffffffffffffffffffffffffffffffffffffffff16815260200190815260200160002054905060008111156116f2576000600d600085815260200190815260200160002060003373ffffffffffffffffffffffffffffffffffffffff1673ffffffffffffffffffffffffffffffffffffffff168152602001908152602001600020819055503373ffffffffffffffffffffffffffffffffffffffff166108fc829081150290604051600060405180830381858888f193505050506116f15780600d600085815260200190815260200160002060003373ffffffffffffffffffffffffffffffffffffffff1673ffffffffffffffffffffffffffffffffffffffff1681526020019081526020016000208190555060009150506116f8565b5b60019150505b919050565b60008073ffffffffffffffffffffffffffffffffffffffff168273ffffffffffffffffffffffffffffffffffffffff160361176d576040517f08c379a000000000000000000000000000000000000000000000000000000000815260040161176490614ee6565b60405180910390fd5b600360008373ffffffffffffffffffffffffffffffffffffffff1673ffffffffffffffffffffffffffffffffffffffff168152602001908152602001600020549050919050565b60006117c06007613167565b60006117cc600761317d565b90506117d833826131c8565b6117e281856133e5565b6117ec8184613489565b82817fb640004f1d14576d0c209e240cad0410e0d8c0c33a09375861fbadae2588a98d3330600060405161182293929190614f06565b60405180910390a38091505092915050565b60606000611842600761317d565b90506000611850600861317d565b61185a600761317d565b6118649190614f3d565b90506000808267ffffffffffffffff81111561188357611882614509565b5b6040519080825280602002602001820160405280156118bc57816020015b6118a9613ef3565b8152602001906001900390816118a15790505b50905060005b84811015611b34573073ffffffffffffffffffffffffffffffffffffffff16600c60006001846118f29190614d5d565b815260200190815260200160002060020160009054906101000a900473ffffffffffffffffffffffffffffffffffffffff1673ffffffffffffffffffffffffffffffffffffffff1603611b2157600060018261194e9190614d5d565b90506000600c60008381526020019081526020016000209050806040518060c0016040529081600082015481526020016001820160009054906101000a900473ffffffffffffffffffffffffffffffffffffffff1673ffffffffffffffffffffffffffffffffffffffff1673ffffffffffffffffffffffffffffffffffffffff1681526020016002820160009054906101000a900473ffffffffffffffffffffffffffffffffffffffff1673ffffffffffffffffffffffffffffffffffffffff1673ffffffffffffffffffffffffffffffffffffffff16815260200160038201548152602001600482016040518060a00160405290816000820154815260200160018201548152602001600282015481526020016003820160009054906101000a900473ffffffffffffffffffffffffffffffffffffffff1673ffffffffffffffffffffffffffffffffffffffff1673ffffffffffffffffffffffffffffffffffffffff1681526020016003820160149054906101000a900460ff16151515158152505081526020016008820160009054906101000a900460ff161515151581525050848681518110611b0457611b03614dd9565b5b6020026020010181905250600185611b1c9190614d5d565b945050505b8080611b2c90614d91565b9150506118c2565b508094505050505090565b606060018054611b4e90614922565b80601f0160208091040260200160405190810160405280929190818152602001828054611b7a90614922565b8015611bc75780601f10611b9c57610100808354040283529160200191611bc7565b820191906000526020600020905b815481529060010190602001808311611baa57829003601f168201915b5050505050905090565b3373ffffffffffffffffffffffffffffffffffffffff16600c600084815260200190815260200160002060010160009054906101000a900473ffffffffffffffffffffffffffffffffffffffff1673ffffffffffffffffffffffffffffffffffffffff1614611c75576040517f08c379a0000000000000000000000000000000000000000000000000000000008152600401611c6c90614fe3565b60405180910390fd5b80600c6000848152602001908152602001600020600301819055505050565b611ca6611c9f612d18565b83836137ce565b5050565b60606000600167ffffffffffffffff811115611cc957611cc8614509565b5b604051908082528060200260200182016040528015611d0257816020015b611cef613ef3565b815260200190600190039081611ce75790505b509050600c60008481526020019081526020016000206040518060c0016040529081600082015481526020016001820160009054906101000a900473ffffffffffffffffffffffffffffffffffffffff1673ffffffffffffffffffffffffffffffffffffffff1673ffffffffffffffffffffffffffffffffffffffff1681526020016002820160009054906101000a900473ffffffffffffffffffffffffffffffffffffffff1673ffffffffffffffffffffffffffffffffffffffff1673ffffffffffffffffffffffffffffffffffffffff16815260200160038201548152602001600482016040518060a00160405290816000820154815260200160018201548152602001600282015481526020016003820160009054906101000a900473ffffffffffffffffffffffffffffffffffffffff1673ffffffffffffffffffffffffffffffffffffffff1673ffffffffffffffffffffffffffffffffffffffff1681526020016003820160149054906101000a900460ff16151515158152505081526020016008820160009054906101000a900460ff16151515158152505081600081518110611eb557611eb4614dd9565b5b602002602001018190525080915050919050565b611eda611ed4612d18565b83612dd9565b611f19576040517f08c379a0000000000000000000000000000000000000000000000000000000008152600401611f1090614ae9565b60405180910390fd5b611f258484848461393a565b50505050565b6000600c6000838152602001908152602001600020600301549050803414611f88576040517f08c379a0000000000000000000000000000000000000000000000000000000008152600401611f7f90615075565b60405180910390fd5b600c600083815260200190815260200160002060010160009054906101000a900473ffffffffffffffffffffffffffffffffffffffff1673ffffffffffffffffffffffffffffffffffffffff166108fc349081150290604051600060405180830381858888f19350505050158015612004573d6000803e3d6000fd5b5033600c600084815260200190815260200160002060020160006101000a81548173ffffffffffffffffffffffffffffffffffffffff021916908373ffffffffffffffffffffffffffffffffffffffff1602179055506001600c600084815260200190815260200160002060080160006101000a81548160ff0219169083151502179055506000600c600084815260200190815260200160002060010160006101000a81548173ffffffffffffffffffffffffffffffffffffffff021916908373ffffffffffffffffffffffffffffffffffffffff1602179055506120e96008613167565b6120f4303384612e6e565b5050565b60606000612106600761317d565b905060008060005b838110156121ae573373ffffffffffffffffffffffffffffffffffffffff16600c600060018461213e9190614d5d565b815260200190815260200160002060020160009054906101000a900473ffffffffffffffffffffffffffffffffffffffff1673ffffffffffffffffffffffffffffffffffffffff160361219b576001836121989190614d5d565b92505b80806121a690614d91565b91505061210e565b5060008267ffffffffffffffff8111156121cb576121ca614509565b5b60405190808252806020026020018201604052801561220457816020015b6121f1613ef3565b8152602001906001900390816121e95790505b50905060005b8481101561247c573373ffffffffffffffffffffffffffffffffffffffff16600c600060018461223a9190614d5d565b815260200190815260200160002060020160009054906101000a900473ffffffffffffffffffffffffffffffffffffffff1673ffffffffffffffffffffffffffffffffffffffff16036124695760006001826122969190614d5d565b90506000600c60008381526020019081526020016000209050806040518060c0016040529081600082015481526020016001820160009054906101000a900473ffffffffffffffffffffffffffffffffffffffff1673ffffffffffffffffffffffffffffffffffffffff1673ffffffffffffffffffffffffffffffffffffffff1681526020016002820160009054906101000a900473ffffffffffffffffffffffffffffffffffffffff1673ffffffffffffffffffffffffffffffffffffffff1673ffffffffffffffffffffffffffffffffffffffff16815260200160038201548152602001600482016040518060a00160405290816000820154815260200160018201548152602001600282015481526020016003820160009054906101000a900473ffffffffffffffffffffffffffffffffffffffff1673ffffffffffffffffffffffffffffffffffffffff1673ffffffffffffffffffffffffffffffffffffffff1681526020016003820160149054906101000a900460ff16151515158152505081526020016008820160009054906101000a900460ff16151515158152505084868151811061244c5761244b614dd9565b5b60200260200101819052506001856124649190614d5d565b945050505b808061247490614d91565b91505061220a565b508094505050505090565b606061249282612ccd565b60006006600084815260200190815260200160002080546124b290614922565b80601f01602080910402602001604051908101604052809291908181526020018280546124de90614922565b801561252b5780601f106125005761010080835404028352916020019161252b565b820191906000526020600020905b81548152906001019060200180831161250e57829003601f168201915b50505050509050600061253c613996565b90506000815103612551578192505050612594565b60008251111561258657808260405160200161256e9291906150d1565b60405160208183030381529060405292505050612594565b61258f846139ad565b925050505b919050565b60011515600c600085815260200190815260200160002060040160030160149054906101000a900460ff16151514612606576040517f08c379a00000000000000000000000000000000000000000000000000000000081526004016125fd90615141565b60405180910390fd5b3373ffffffffffffffffffffffffffffffffffffffff16600c600085815260200190815260200160002060010160009054906101000a900473ffffffffffffffffffffffffffffffffffffffff1673ffffffffffffffffffffffffffffffffffffffff1614801561269e575060001515600c600085815260200190815260200160002060080160009054906101000a900460ff161515145b8061273d57503373ffffffffffffffffffffffffffffffffffffffff16600c600085815260200190815260200160002060020160009054906101000a900473ffffffffffffffffffffffffffffffffffffffff1673ffffffffffffffffffffffffffffffffffffffff1614801561273c575060011515600c600085815260200190815260200160002060080160009054906101000a900460ff161515145b5b1561295d5761274c6009613167565b6040518060a00160405280612761600961317d565b815260200183426127729190614d5d565b81526020018281526020013373ffffffffffffffffffffffffffffffffffffffff16815260200160001515815250600c600085815260200190815260200160002060040160008201518160000155602082015181600101556040820151816002015560608201518160030160006101000a81548173ffffffffffffffffffffffffffffffffffffffff021916908373ffffffffffffffffffffffffffffffffffffffff16021790555060808201518160030160146101000a81548160ff02191690831515021790555090505060011515600c600085815260200190815260200160002060080160009054906101000a900460ff1615150361295c576000600c600085815260200190815260200160002060080160006101000a81548160ff02191690831515021790555033600c600085815260200190815260200160002060010160006101000a81548173ffffffffffffffffffffffffffffffffffffffff021916908373ffffffffffffffffffffffffffffffffffffffff16021790555030600c600085815260200190815260200160002060020160006101000a81548173ffffffffffffffffffffffffffffffffffffffff021916908373ffffffffffffffffffffffffffffffffffffffff1602179055506129506008613a15565b61295b333085612e6e565b5b5b505050565b3373ffffffffffffffffffffffffffffffffffffffff16600c600084815260200190815260200160002060020160009054906101000a900473ffffffffffffffffffffffffffffffffffffffff1673ffffffffffffffffffffffffffffffffffffffff1614612a06576040517f08c379a00000000000000000000000000000000000000000000000000000000081526004016129fd906151d3565b60405180910390fd5b600a543414612a4a576040517f08c379a0000000000000000000000000000000000000000000000000000000008152600401612a4190615265565b60405180910390fd5b6000600c600084815260200190815260200160002060080160006101000a81548160ff02191690831515021790555080600c60008481526020019081526020016000206003018190555033600c600084815260200190815260200160002060010160006101000a81548173ffffffffffffffffffffffffffffffffffffffff021916908373ffffffffffffffffffffffffffffffffffffffff16021790555030600c600084815260200190815260200160002060020160006101000a81548173ffffffffffffffffffffffffffffffffffffffff021916908373ffffffffffffffffffffffffffffffffffffffff160217905550612b486008613a15565b612b53333084612e6e565b5050565b6000600560008473ffffffffffffffffffffffffffffffffffffffff1673ffffffffffffffffffffffffffffffffffffffff16815260200190815260200160002060008373ffffffffffffffffffffffffffffffffffffffff1673ffffffffffffffffffffffffffffffffffffffff16815260200190815260200160002060009054906101000a900460ff16905092915050565b60007f80ac58cd000000000000000000000000000000000000000000000000000000007bffffffffffffffffffffffffffffffffffffffffffffffffffffffff1916827bffffffffffffffffffffffffffffffffffffffffffffffffffffffff19161480612cb657507f5b5e139f000000000000000000000000000000000000000000000000000000007bffffffffffffffffffffffffffffffffffffffffffffffffffffffff1916827bffffffffffffffffffffffffffffffffffffffffffffffffffffffff1916145b80612cc65750612cc582613a71565b5b9050919050565b612cd681613adb565b612d15576040517f08c379a0000000000000000000000000000000000000000000000000000000008152600401612d0c90614e54565b60405180910390fd5b50565b600033905090565b816004600083815260200190815260200160002060006101000a81548173ffffffffffffffffffffffffffffffffffffffff021916908373ffffffffffffffffffffffffffffffffffffffff160217905550808273ffffffffffffffffffffffffffffffffffffffff16612d938361151e565b73ffffffffffffffffffffffffffffffffffffffff167f8c5be1e5ebec7d5bd14f71427d1e84f3dd0314c0f7b2291e5b200ac8c7c3b92560405160405180910390a45050565b600080612de58361151e565b90508073ffffffffffffffffffffffffffffffffffffffff168473ffffffffffffffffffffffffffffffffffffffff161480612e275750612e268185612b57565b5b80612e6557508373ffffffffffffffffffffffffffffffffffffffff16612e4d8461071c565b73ffffffffffffffffffffffffffffffffffffffff16145b91505092915050565b8273ffffffffffffffffffffffffffffffffffffffff16612e8e8261151e565b73ffffffffffffffffffffffffffffffffffffffff1614612ee4576040517f08c379a0000000000000000000000000000000000000000000000000000000008152600401612edb906152f7565b60405180910390fd5b600073ffffffffffffffffffffffffffffffffffffffff168273ffffffffffffffffffffffffffffffffffffffff1603612f53576040517f08c379a0000000000000000000000000000000000000000000000000000000008152600401612f4a90615389565b60405180910390fd5b612f608383836001613b1c565b8273ffffffffffffffffffffffffffffffffffffffff16612f808261151e565b73ffffffffffffffffffffffffffffffffffffffff1614612fd6576040517f08c379a0000000000000000000000000000000000000000000000000000000008152600401612fcd906152f7565b60405180910390fd5b6004600082815260200190815260200160002060006101000a81549073ffffffffffffffffffffffffffffffffffffffff02191690556001600360008573ffffffffffffffffffffffffffffffffffffffff1673ffffffffffffffffffffffffffffffffffffffff168152602001908152602001600020600082825403925050819055506001600360008473ffffffffffffffffffffffffffffffffffffffff1673ffffffffffffffffffffffffffffffffffffffff16815260200190815260200160002060008282540192505081905550816002600083815260200190815260200160002060006101000a81548173ffffffffffffffffffffffffffffffffffffffff021916908373ffffffffffffffffffffffffffffffffffffffff160217905550808273ffffffffffffffffffffffffffffffffffffffff168473ffffffffffffffffffffffffffffffffffffffff167fddf252ad1be2c89b69c2b068fc378daa952ba7f163c4a11628f55a4df523b3ef60405160405180910390a46131628383836001613b22565b505050565b6001816000016000828254019250508190555050565b600081600001549050919050565b60006002600083815260200190815260200160002060009054906101000a900473ffffffffffffffffffffffffffffffffffffffff169050919050565b600073ffffffffffffffffffffffffffffffffffffffff168273ffffffffffffffffffffffffffffffffffffffff1603613237576040517f08c379a000000000000000000000000000000000000000000000000000000000815260040161322e906153f5565b60405180910390fd5b61324081613adb565b15613280576040517f08c379a000000000000000000000000000000000000000000000000000000000815260040161327790615461565b60405180910390fd5b61328e600083836001613b1c565b61329781613adb565b156132d7576040517f08c379a00000000000000000000000000000000000000000000000000000000081526004016132ce90615461565b60405180910390fd5b6001600360008473ffffffffffffffffffffffffffffffffffffffff1673ffffffffffffffffffffffffffffffffffffffff16815260200190815260200160002060008282540192505081905550816002600083815260200190815260200160002060006101000a81548173ffffffffffffffffffffffffffffffffffffffff021916908373ffffffffffffffffffffffffffffffffffffffff160217905550808273ffffffffffffffffffffffffffffffffffffffff16600073ffffffffffffffffffffffffffffffffffffffff167fddf252ad1be2c89b69c2b068fc378daa952ba7f163c4a11628f55a4df523b3ef60405160405180910390a46133e1600083836001613b22565b5050565b6133ee82613adb565b61342d576040517f08c379a0000000000000000000000000000000000000000000000000000000008152600401613424906154f3565b60405180910390fd5b8060066000848152602001908152602001600020908161344d91906156bf565b507ff8e1a15aba9398e019f0b49df1a4fde98ee17ae345cb5f6b5e2c27f5033e8ce78260405161347d919061425f565b60405180910390a15050565b600081116134cc576040517f08c379a00000000000000000000000000000000000000000000000000000000081526004016134c3906157dd565b60405180910390fd5b600a543414613510576040517f08c379a000000000000000000000000000000000000000000000000000000000815260040161350790615265565b60405180910390fd5b6040518060c001604052808381526020013373ffffffffffffffffffffffffffffffffffffffff1681526020013073ffffffffffffffffffffffffffffffffffffffff1681526020018281526020016040518060a001604052806000815260200160008152602001600081526020013373ffffffffffffffffffffffffffffffffffffffff16815260200160011515815250815260200160001515815250600c60008481526020019081526020016000206000820151816000015560208201518160010160006101000a81548173ffffffffffffffffffffffffffffffffffffffff021916908373ffffffffffffffffffffffffffffffffffffffff16021790555060408201518160020160006101000a81548173ffffffffffffffffffffffffffffffffffffffff021916908373ffffffffffffffffffffffffffffffffffffffff1602179055506060820151816003015560808201518160040160008201518160000155602082015181600101556040820151816002015560608201518160030160006101000a81548173ffffffffffffffffffffffffffffffffffffffff021916908373ffffffffffffffffffffffffffffffffffffffff16021790555060808201518160030160146101000a81548160ff021916908315150217905550505060a08201518160080160006101000a81548160ff021916908315150217905550905050613721333084612e6e565b80827fb640004f1d14576d0c209e240cad0410e0d8c0c33a09375861fbadae2588a98d3330600060405161375793929190614f06565b60405180910390a3600b60009054906101000a900473ffffffffffffffffffffffffffffffffffffffff1673ffffffffffffffffffffffffffffffffffffffff166108fc600a549081150290604051600060405180830381858888f193505050501580156137c9573d6000803e3d6000fd5b505050565b8173ffffffffffffffffffffffffffffffffffffffff168373ffffffffffffffffffffffffffffffffffffffff160361383c576040517f08c379a000000000000000000000000000000000000000000000000000000000815260040161383390615849565b60405180910390fd5b80600560008573ffffffffffffffffffffffffffffffffffffffff1673ffffffffffffffffffffffffffffffffffffffff16815260200190815260200160002060008473ffffffffffffffffffffffffffffffffffffffff1673ffffffffffffffffffffffffffffffffffffffff16815260200190815260200160002060006101000a81548160ff0219169083151502179055508173ffffffffffffffffffffffffffffffffffffffff168373ffffffffffffffffffffffffffffffffffffffff167f17307eab39ab6107e8899845ad3d59bd9653f200f220920489ca2b5937696c318360405161392d9190614058565b60405180910390a3505050565b613945848484612e6e565b61395184848484613b28565b613990576040517f08c379a0000000000000000000000000000000000000000000000000000000008152600401613987906158db565b60405180910390fd5b50505050565b606060405180602001604052806000815250905090565b60606139b882612ccd565b60006139c2613996565b905060008151116139e25760405180602001604052806000815250613a0d565b806139ec84613caf565b6040516020016139fd9291906150d1565b6040516020818303038152906040525b915050919050565b60008160000154905060008111613a61576040517f08c379a0000000000000000000000000000000000000000000000000000000008152600401613a5890615947565b60405180910390fd5b6001810382600001819055505050565b60007f01ffc9a7000000000000000000000000000000000000000000000000000000007bffffffffffffffffffffffffffffffffffffffffffffffffffffffff1916827bffffffffffffffffffffffffffffffffffffffffffffffffffffffff1916149050919050565b60008073ffffffffffffffffffffffffffffffffffffffff16613afd8361318b565b73ffffffffffffffffffffffffffffffffffffffff1614159050919050565b50505050565b50505050565b6000613b498473ffffffffffffffffffffffffffffffffffffffff16613d7d565b15613ca2578373ffffffffffffffffffffffffffffffffffffffff1663150b7a02613b72612d18565b8786866040518563ffffffff1660e01b8152600401613b9494939291906159bc565b6020604051808303816000875af1925050508015613bd057506040513d601f19601f82011682018060405250810190613bcd9190615a1d565b60015b613c52573d8060008114613c00576040519150601f19603f3d011682016040523d82523d6000602084013e613c05565b606091505b506000815103613c4a576040517f08c379a0000000000000000000000000000000000000000000000000000000008152600401613c41906158db565b60405180910390fd5b805181602001fd5b63150b7a0260e01b7bffffffffffffffffffffffffffffffffffffffffffffffffffffffff1916817bffffffffffffffffffffffffffffffffffffffffffffffffffffffff191614915050613ca7565b600190505b949350505050565b606060006001613cbe84613da0565b01905060008167ffffffffffffffff811115613cdd57613cdc614509565b5b6040519080825280601f01601f191660200182016040528015613d0f5781602001600182028036833780820191505090505b509050600082602001820190505b600115613d72578080600190039150507f3031323334353637383961626364656600000000000000000000000000000000600a86061a8153600a8581613d6657613d65615a4a565b5b04945060008503613d1d575b819350505050919050565b6000808273ffffffffffffffffffffffffffffffffffffffff163b119050919050565b600080600090507a184f03e93ff9f4daa797ed6e38ed64bf6a1f0100000000000000008310613dfe577a184f03e93ff9f4daa797ed6e38ed64bf6a1f0100000000000000008381613df457613df3615a4a565b5b0492506040810190505b6d04ee2d6d415b85acef81000000008310613e3b576d04ee2d6d415b85acef81000000008381613e3157613e30615a4a565b5b0492506020810190505b662386f26fc100008310613e6a57662386f26fc100008381613e6057613e5f615a4a565b5b0492506010810190505b6305f5e1008310613e93576305f5e1008381613e8957613e88615a4a565b5b0492506008810190505b6127108310613eb8576127108381613eae57613ead615a4a565b5b0492506004810190505b60648310613edb5760648381613ed157613ed0615a4a565b5b0492506002810190505b600a8310613eea576001810190505b80915050919050565b6040518060c0016040528060008152602001600073ffffffffffffffffffffffffffffffffffffffff168152602001600073ffffffffffffffffffffffffffffffffffffffff16815260200160008152602001613f4e613f5d565b81526020016000151581525090565b6040518060a00160405280600081526020016000815260200160008152602001600073ffffffffffffffffffffffffffffffffffffffff1681526020016000151581525090565b6000604051905090565b600080fd5b600080fd5b60007fffffffff0000000000000000000000000000000000000000000000000000000082169050919050565b613fed81613fb8565b8114613ff857600080fd5b50565b60008135905061400a81613fe4565b92915050565b60006020828403121561402657614025613fae565b5b600061403484828501613ffb565b91505092915050565b60008115159050919050565b6140528161403d565b82525050565b600060208201905061406d6000830184614049565b92915050565b600081519050919050565b600082825260208201905092915050565b60005b838110156140ad578082015181840152602081019050614092565b60008484015250505050565b6000601f19601f8301169050919050565b60006140d582614073565b6140df818561407e565b93506140ef81856020860161408f565b6140f8816140b9565b840191505092915050565b6000602082019050818103600083015261411d81846140ca565b905092915050565b6000819050919050565b61413881614125565b811461414357600080fd5b50565b6000813590506141558161412f565b92915050565b60006020828403121561417157614170613fae565b5b600061417f84828501614146565b91505092915050565b600073ffffffffffffffffffffffffffffffffffffffff82169050919050565b60006141b382614188565b9050919050565b6141c3816141a8565b82525050565b60006020820190506141de60008301846141ba565b92915050565b6141ed816141a8565b81146141f857600080fd5b50565b60008135905061420a816141e4565b92915050565b6000806040838503121561422757614226613fae565b5b6000614235858286016141fb565b925050602061424685828601614146565b9150509250929050565b61425981614125565b82525050565b60006020820190506142746000830184614250565b92915050565b60008060006060848603121561429357614292613fae565b5b60006142a1868287016141fb565b93505060206142b2868287016141fb565b92505060406142c386828701614146565b9150509250925092565b600081519050919050565b600082825260208201905092915050565b6000819050602082019050919050565b61430281614125565b82525050565b600061431382614188565b9050919050565b61432381614308565b82525050565b614332816141a8565b82525050565b6143418161403d565b82525050565b60a08201600082015161435d60008501826142f9565b50602082015161437060208501826142f9565b50604082015161438360408501826142f9565b5060608201516143966060850182614329565b5060808201516143a96080850182614338565b50505050565b610140820160008201516143c660008501826142f9565b5060208201516143d9602085018261431a565b5060408201516143ec604085018261431a565b5060608201516143ff60608501826142f9565b5060808201516144126080850182614347565b5060a0820151614426610120850182614338565b50505050565b600061443883836143af565b6101408301905092915050565b6000602082019050919050565b600061445d826142cd565b61446781856142d8565b9350614472836142e9565b8060005b838110156144a357815161448a888261442c565b975061449583614445565b925050600181019050614476565b5085935050505092915050565b600060208201905081810360008301526144ca8184614452565b905092915050565b6000602082840312156144e8576144e7613fae565b5b60006144f6848285016141fb565b91505092915050565b600080fd5b600080fd5b7f4e487b7100000000000000000000000000000000000000000000000000000000600052604160045260246000fd5b614541826140b9565b810181811067ffffffffffffffff821117156145605761455f614509565b5b80604052505050565b6000614573613fa4565b905061457f8282614538565b919050565b600067ffffffffffffffff82111561459f5761459e614509565b5b6145a8826140b9565b9050602081019050919050565b82818337600083830152505050565b60006145d76145d284614584565b614569565b9050828152602081018484840111156145f3576145f2614504565b5b6145fe8482856145b5565b509392505050565b600082601f83011261461b5761461a6144ff565b5b813561462b8482602086016145c4565b91505092915050565b6000806040838503121561464b5761464a613fae565b5b600083013567ffffffffffffffff81111561466957614668613fb3565b5b61467585828601614606565b925050602061468685828601614146565b9150509250929050565b600080604083850312156146a7576146a6613fae565b5b60006146b585828601614146565b92505060206146c685828601614146565b9150509250929050565b6146d98161403d565b81146146e457600080fd5b50565b6000813590506146f6816146d0565b92915050565b6000806040838503121561471357614712613fae565b5b6000614721858286016141fb565b9250506020614732858286016146e7565b9150509250929050565b600067ffffffffffffffff82111561475757614756614509565b5b614760826140b9565b9050602081019050919050565b600061478061477b8461473c565b614569565b90508281526020810184848401111561479c5761479b614504565b5b6147a78482856145b5565b509392505050565b600082601f8301126147c4576147c36144ff565b5b81356147d484826020860161476d565b91505092915050565b600080600080608085870312156147f7576147f6613fae565b5b6000614805878288016141fb565b9450506020614816878288016141fb565b935050604061482787828801614146565b925050606085013567ffffffffffffffff81111561484857614847613fb3565b5b614854878288016147af565b91505092959194509250565b60008060006060848603121561487957614878613fae565b5b600061488786828701614146565b935050602061489886828701614146565b92505060406148a986828701614146565b9150509250925092565b600080604083850312156148ca576148c9613fae565b5b60006148d8858286016141fb565b92505060206148e9858286016141fb565b9150509250929050565b7f4e487b7100000000000000000000000000000000000000000000000000000000600052602260045260246000fd5b6000600282049050600182168061493a57607f821691505b60208210810361494d5761494c6148f3565b5b50919050565b7f4552433732313a20617070726f76616c20746f2063757272656e74206f776e6560008201527f7200000000000000000000000000000000000000000000000000000000000000602082015250565b60006149af60218361407e565b91506149ba82614953565b604082019050919050565b600060208201905081810360008301526149de816149a2565b9050919050565b7f4552433732313a20617070726f76652063616c6c6572206973206e6f7420746f60008201527f6b656e206f776e6572206f7220617070726f76656420666f7220616c6c000000602082015250565b6000614a41603d8361407e565b9150614a4c826149e5565b604082019050919050565b60006020820190508181036000830152614a7081614a34565b9050919050565b7f4552433732313a2063616c6c6572206973206e6f7420746f6b656e206f776e6560008201527f72206f7220617070726f76656400000000000000000000000000000000000000602082015250565b6000614ad3602d8361407e565b9150614ade82614a77565b604082019050919050565b60006020820190508181036000830152614b0281614ac6565b9050919050565b7f4974206973206e6f742074686520656e642074696d6500000000000000000000600082015250565b6000614b3f60168361407e565b9150614b4a82614b09565b602082019050919050565b60006020820190508181036000830152614b6e81614b32565b9050919050565b6000604082019050614b8a60008301856141ba565b614b976020830184614250565b9392505050565b7f4f776e657220616e642073656c6c65722063616e206e6f74206275792074686960008201527f73206e6674000000000000000000000000000000000000000000000000000000602082015250565b6000614bfa60258361407e565b9150614c0582614b9e565b604082019050919050565b60006020820190508181036000830152614c2981614bed565b9050919050565b7f5468652061756374696f6e2077617320656e6465640000000000000000000000600082015250565b6000614c6660158361407e565b9150614c7182614c30565b602082019050919050565b60006020820190508181036000830152614c9581614c59565b9050919050565b7f596f7572207072696365206973206e6f7420746865206869676865737420707260008201527f6963650000000000000000000000000000000000000000000000000000000000602082015250565b6000614cf860238361407e565b9150614d0382614c9c565b604082019050919050565b60006020820190508181036000830152614d2781614ceb565b9050919050565b7f4e487b7100000000000000000000000000000000000000000000000000000000600052601160045260246000fd5b6000614d6882614125565b9150614d7383614125565b9250828201905080821115614d8b57614d8a614d2e565b5b92915050565b6000614d9c82614125565b91507fffffffffffffffffffffffffffffffffffffffffffffffffffffffffffffffff8203614dce57614dcd614d2e565b5b600182019050919050565b7f4e487b7100000000000000000000000000000000000000000000000000000000600052603260045260246000fd5b7f4552433732313a20696e76616c696420746f6b656e2049440000000000000000600082015250565b6000614e3e60188361407e565b9150614e4982614e08565b602082019050919050565b60006020820190508181036000830152614e6d81614e31565b9050919050565b7f4552433732313a2061646472657373207a65726f206973206e6f74206120766160008201527f6c6964206f776e65720000000000000000000000000000000000000000000000602082015250565b6000614ed060298361407e565b9150614edb82614e74565b604082019050919050565b60006020820190508181036000830152614eff81614ec3565b9050919050565b6000606082019050614f1b60008301866141ba565b614f2860208301856141ba565b614f356040830184614049565b949350505050565b6000614f4882614125565b9150614f5383614125565b9250828203905081811115614f6b57614f6a614d2e565b5b92915050565b7f4f6e6c79206974656d2073656c6c65722063616e20706572666f726d2074686960008201527f73206f7065726174696f6e000000000000000000000000000000000000000000602082015250565b6000614fcd602b8361407e565b9150614fd882614f71565b604082019050919050565b60006020820190508181036000830152614ffc81614fc0565b9050919050565b7f506c65617365207375626d6974207468652061736b696e67207072696365206960008201527f6e206f7264657220746f20636f6d706c65746520746865207075726368617365602082015250565b600061505f60408361407e565b915061506a82615003565b604082019050919050565b6000602082019050818103600083015261508e81615052565b9050919050565b600081905092915050565b60006150ab82614073565b6150b58185615095565b93506150c581856020860161408f565b80840191505092915050565b60006150dd82856150a0565b91506150e982846150a0565b91508190509392505050565b7f546865204e46542069732062696464696e670000000000000000000000000000600082015250565b600061512b60128361407e565b9150615136826150f5565b602082019050919050565b6000602082019050818103600083015261515a8161511e565b9050919050565b7f4f6e6c79206974656d206f776e65722063616e20706572666f726d207468697360008201527f206f7065726174696f6e00000000000000000000000000000000000000000000602082015250565b60006151bd602a8361407e565b91506151c882615161565b604082019050919050565b600060208201905081810360008301526151ec816151b0565b9050919050565b7f5072696365206d75737420626520657175616c20746f206c697374696e67207060008201527f7269636500000000000000000000000000000000000000000000000000000000602082015250565b600061524f60248361407e565b915061525a826151f3565b604082019050919050565b6000602082019050818103600083015261527e81615242565b9050919050565b7f4552433732313a207472616e736665722066726f6d20696e636f72726563742060008201527f6f776e6572000000000000000000000000000000000000000000000000000000602082015250565b60006152e160258361407e565b91506152ec82615285565b604082019050919050565b60006020820190508181036000830152615310816152d4565b9050919050565b7f4552433732313a207472616e7366657220746f20746865207a65726f2061646460008201527f7265737300000000000000000000000000000000000000000000000000000000602082015250565b600061537360248361407e565b915061537e82615317565b604082019050919050565b600060208201905081810360008301526153a281615366565b9050919050565b7f4552433732313a206d696e7420746f20746865207a65726f2061646472657373600082015250565b60006153df60208361407e565b91506153ea826153a9565b602082019050919050565b6000602082019050818103600083015261540e816153d2565b9050919050565b7f4552433732313a20746f6b656e20616c7265616479206d696e74656400000000600082015250565b600061544b601c8361407e565b915061545682615415565b602082019050919050565b6000602082019050818103600083015261547a8161543e565b9050919050565b7f45524337323155524953746f726167653a2055524920736574206f66206e6f6e60008201527f6578697374656e7420746f6b656e000000000000000000000000000000000000602082015250565b60006154dd602e8361407e565b91506154e882615481565b604082019050919050565b6000602082019050818103600083015261550c816154d0565b9050919050565b60008190508160005260206000209050919050565b60006020601f8301049050919050565b600082821b905092915050565b6000600883026155757fffffffffffffffffffffffffffffffffffffffffffffffffffffffffffffffff82615538565b61557f8683615538565b95508019841693508086168417925050509392505050565b6000819050919050565b60006155bc6155b76155b284614125565b615597565b614125565b9050919050565b6000819050919050565b6155d6836155a1565b6155ea6155e2826155c3565b848454615545565b825550505050565b600090565b6155ff6155f2565b61560a8184846155cd565b505050565b5b8181101561562e576156236000826155f7565b600181019050615610565b5050565b601f8211156156735761564481615513565b61564d84615528565b8101602085101561565c578190505b61567061566885615528565b83018261560f565b50505b505050565b600082821c905092915050565b600061569660001984600802615678565b1980831691505092915050565b60006156af8383615685565b9150826002028217905092915050565b6156c882614073565b67ffffffffffffffff8111156156e1576156e0614509565b5b6156eb8254614922565b6156f6828285615632565b600060209050601f8311600181146157295760008415615717578287015190505b61572185826156a3565b865550615789565b601f19841661573786615513565b60005b8281101561575f5784890151825560018201915060208501945060208101905061573a565b8683101561577c5784890151615778601f891682615685565b8355505b6001600288020188555050505b505050505050565b7f5072696365206d757374206265206174206c6561737420312077656900000000600082015250565b60006157c7601c8361407e565b91506157d282615791565b602082019050919050565b600060208201905081810360008301526157f6816157ba565b9050919050565b7f4552433732313a20617070726f766520746f2063616c6c657200000000000000600082015250565b600061583360198361407e565b915061583e826157fd565b602082019050919050565b6000602082019050818103600083015261586281615826565b9050919050565b7f4552433732313a207472616e7366657220746f206e6f6e20455243373231526560008201527f63656976657220696d706c656d656e7465720000000000000000000000000000602082015250565b60006158c560328361407e565b91506158d082615869565b604082019050919050565b600060208201905081810360008301526158f4816158b8565b9050919050565b7f436f756e7465723a2064656372656d656e74206f766572666c6f770000000000600082015250565b6000615931601b8361407e565b915061593c826158fb565b602082019050919050565b6000602082019050818103600083015261596081615924565b9050919050565b600081519050919050565b600082825260208201905092915050565b600061598e82615967565b6159988185615972565b93506159a881856020860161408f565b6159b1816140b9565b840191505092915050565b60006080820190506159d160008301876141ba565b6159de60208301866141ba565b6159eb6040830185614250565b81810360608301526159fd8184615983565b905095945050505050565b600081519050615a1781613fe4565b92915050565b600060208284031215615a3357615a32613fae565b5b6000615a4184828501615a08565b91505092915050565b7f4e487b7100000000000000000000000000000000000000000000000000000000600052601260045260246000fdfea2646970667358221220793607c55106cea67d2c0a3bcda385b1bed73520b2f13bb8644ee4e83b68bdc064736f6c63430008130033",
  "linkReferences": {},
  "deployedLinkReferences": {}
}