{
  "_format": "hh-sol-artifact-1",
  "contractName": "Oasis_NFTMarketplace",
  "sourceName": "contracts/Oasis_NFTMarketplace.sol",
  "abi": [
    {
      "inputs": [],
      "stateMutability": "nonpayable",
      "type": "constructor"
    },
    {
      "anonymous": false,
      "inputs": [
        {
          "indexed": true,
          "internalType": "address",
          "name": "owner",
          "type": "address"
        },
        {
          "indexed": true,
          "internalType": "address",
          "name": "approved",
          "type": "address"
        },
        {
          "indexed": true,
          "internalType": "uint256",
          "name": "tokenId",
          "type": "uint256"
        }
      ],
      "name": "Approval",
      "type": "event"
    },
    {
      "anonymous": false,
      "inputs": [
        {
          "indexed": true,
          "internalType": "address",
          "name": "owner",
          "type": "address"
        },
        {
          "indexed": true,
          "internalType": "address",
          "name": "operator",
          "type": "address"
        },
        {
          "indexed": false,
          "internalType": "bool",
          "name": "approved",
          "type": "bool"
        }
      ],
      "name": "ApprovalForAll",
      "type": "event"
    },
    {
      "anonymous": false,
      "inputs": [
        {
          "indexed": false,
          "internalType": "uint256",
          "name": "_fromTokenId",
          "type": "uint256"
        },
        {
          "indexed": false,
          "internalType": "uint256",
          "name": "_toTokenId",
          "type": "uint256"
        }
      ],
      "name": "BatchMetadataUpdate",
      "type": "event"
    },
    {
      "anonymous": false,
      "inputs": [
        {
          "indexed": true,
          "internalType": "uint256",
          "name": "tokenId",
          "type": "uint256"
        },
        {
          "indexed": false,
          "internalType": "address",
          "name": "seller",
          "type": "address"
        },
        {
          "indexed": false,
          "internalType": "address",
          "name": "owner",
          "type": "address"
        },
        {
          "indexed": true,
          "internalType": "uint256",
          "name": "price",
          "type": "uint256"
        },
        {
          "indexed": false,
          "internalType": "bool",
          "name": "sold",
          "type": "bool"
        }
      ],
      "name": "MarketItemCreated",
      "type": "event"
    },
    {
      "anonymous": false,
      "inputs": [
        {
          "indexed": false,
          "internalType": "uint256",
          "name": "_tokenId",
          "type": "uint256"
        }
      ],
      "name": "MetadataUpdate",
      "type": "event"
    },
    {
      "anonymous": false,
      "inputs": [
        {
          "indexed": true,
          "internalType": "address",
          "name": "from",
          "type": "address"
        },
        {
          "indexed": true,
          "internalType": "address",
          "name": "to",
          "type": "address"
        },
        {
          "indexed": true,
          "internalType": "uint256",
          "name": "tokenId",
          "type": "uint256"
        }
      ],
      "name": "Transfer",
      "type": "event"
    },
    {
      "anonymous": false,
      "inputs": [
        {
          "indexed": false,
          "internalType": "address",
          "name": "winner",
          "type": "address"
        },
        {
          "indexed": false,
          "internalType": "uint256",
          "name": "amount",
          "type": "uint256"
        }
      ],
      "name": "auctionEnded",
      "type": "event"
    },
    {
      "anonymous": false,
      "inputs": [
        {
          "indexed": false,
          "internalType": "address",
          "name": "payer",
          "type": "address"
        },
        {
          "indexed": false,
          "internalType": "uint256",
          "name": "amount",
          "type": "uint256"
        }
      ],
      "name": "highestPriceIncrease",
      "type": "event"
    },
    {
      "inputs": [
        {
          "internalType": "address",
          "name": "to",
          "type": "address"
        },
        {
          "internalType": "uint256",
          "name": "tokenId",
          "type": "uint256"
        }
      ],
      "name": "approve",
      "outputs": [],
      "stateMutability": "nonpayable",
      "type": "function"
    },
    {
      "inputs": [
        {
          "internalType": "uint256",
          "name": "_tokenId",
          "type": "uint256"
        }
      ],
      "name": "auctionEnd",
      "outputs": [
        {
          "internalType": "bool",
          "name": "",
          "type": "bool"
        }
      ],
      "stateMutability": "payable",
      "type": "function"
    },
    {
      "inputs": [
        {
          "internalType": "uint256",
          "name": "_auctionId",
          "type": "uint256"
        }
      ],
      "name": "auctionWithdraw",
      "outputs": [
        {
          "internalType": "bool",
          "name": "",
          "type": "bool"
        }
      ],
      "stateMutability": "nonpayable",
      "type": "function"
    },
    {
      "inputs": [
        {
          "internalType": "address",
          "name": "owner",
          "type": "address"
        }
      ],
      "name": "balanceOf",
      "outputs": [
        {
          "internalType": "uint256",
          "name": "",
          "type": "uint256"
        }
      ],
      "stateMutability": "view",
      "type": "function"
    },
    {
      "inputs": [
        {
          "internalType": "uint256",
          "name": "tokenId",
          "type": "uint256"
        }
      ],
      "name": "bid",
      "outputs": [],
      "stateMutability": "payable",
      "type": "function"
    },
    {
      "inputs": [
        {
          "internalType": "uint256",
          "name": "tokenId",
          "type": "uint256"
        },
        {
          "internalType": "uint256",
          "name": "time",
          "type": "uint256"
        },
        {
          "internalType": "uint256",
          "name": "startPrice",
          "type": "uint256"
        }
      ],
      "name": "createAuction",
      "outputs": [],
      "stateMutability": "payable",
      "type": "function"
    },
    {
      "inputs": [
        {
          "internalType": "uint256",
          "name": "tokenId",
          "type": "uint256"
        }
      ],
      "name": "createMarketSale",
      "outputs": [],
      "stateMutability": "payable",
      "type": "function"
    },
    {
      "inputs": [
        {
          "internalType": "string",
          "name": "tokenURI",
          "type": "string"
        },
        {
          "internalType": "uint256",
          "name": "price",
          "type": "uint256"
        }
      ],
      "name": "createToken",
      "outputs": [
        {
          "internalType": "uint256",
          "name": "",
          "type": "uint256"
        }
      ],
      "stateMutability": "payable",
      "type": "function"
    },
    {
      "inputs": [],
      "name": "fetchItemsListed",
      "outputs": [
        {
          "components": [
            {
              "internalType": "uint256",
              "name": "tokenId",
              "type": "uint256"
            },
            {
              "internalType": "address payable",
              "name": "seller",
              "type": "address"
            },
            {
              "internalType": "address payable",
              "name": "owner",
              "type": "address"
            },
            {
              "internalType": "uint256",
              "name": "price",
              "type": "uint256"
            },
            {
              "components": [
                {
                  "internalType": "uint256",
                  "name": "AuctionId",
                  "type": "uint256"
                },
                {
                  "internalType": "uint256",
                  "name": "acutionEndTime",
                  "type": "uint256"
                },
                {
                  "internalType": "uint256",
                  "name": "highestPrice",
                  "type": "uint256"
                },
                {
                  "internalType": "address",
                  "name": "highestPayer",
                  "type": "address"
                },
                {
                  "internalType": "bool",
                  "name": "ended",
                  "type": "bool"
                }
              ],
              "internalType": "struct Oasis_NFTMarketplace.AuctionSession",
              "name": "auction",
              "type": "tuple"
            },
            {
              "internalType": "bool",
              "name": "sold",
              "type": "bool"
            }
          ],
          "internalType": "struct Oasis_NFTMarketplace.MarketItem[]",
          "name": "",
          "type": "tuple[]"
        }
      ],
      "stateMutability": "view",
      "type": "function"
    },
    {
      "inputs": [],
      "name": "fetchMarketItem",
      "outputs": [
        {
          "components": [
            {
              "internalType": "uint256",
              "name": "tokenId",
              "type": "uint256"
            },
            {
              "internalType": "address payable",
              "name": "seller",
              "type": "address"
            },
            {
              "internalType": "address payable",
              "name": "owner",
              "type": "address"
            },
            {
              "internalType": "uint256",
              "name": "price",
              "type": "uint256"
            },
            {
              "components": [
                {
                  "internalType": "uint256",
                  "name": "AuctionId",
                  "type": "uint256"
                },
                {
                  "internalType": "uint256",
                  "name": "acutionEndTime",
                  "type": "uint256"
                },
                {
                  "internalType": "uint256",
                  "name": "highestPrice",
                  "type": "uint256"
                },
                {
                  "internalType": "address",
                  "name": "highestPayer",
                  "type": "address"
                },
                {
                  "internalType": "bool",
                  "name": "ended",
                  "type": "bool"
                }
              ],
              "internalType": "struct Oasis_NFTMarketplace.AuctionSession",
              "name": "auction",
              "type": "tuple"
            },
            {
              "internalType": "bool",
              "name": "sold",
              "type": "bool"
            }
          ],
          "internalType": "struct Oasis_NFTMarketplace.MarketItem[]",
          "name": "",
          "type": "tuple[]"
        }
      ],
      "stateMutability": "view",
      "type": "function"
    },
    {
      "inputs": [
        {
          "internalType": "uint256",
          "name": "_pageNumber",
          "type": "uint256"
        },
        {
          "internalType": "uint256",
          "name": "_numberItem",
          "type": "uint256"
        }
      ],
      "name": "fetchMarketItemPage",
      "outputs": [
        {
          "components": [
            {
              "internalType": "uint256",
              "name": "tokenId",
              "type": "uint256"
            },
            {
              "internalType": "address payable",
              "name": "seller",
              "type": "address"
            },
            {
              "internalType": "address payable",
              "name": "owner",
              "type": "address"
            },
            {
              "internalType": "uint256",
              "name": "price",
              "type": "uint256"
            },
            {
              "components": [
                {
                  "internalType": "uint256",
                  "name": "AuctionId",
                  "type": "uint256"
                },
                {
                  "internalType": "uint256",
                  "name": "acutionEndTime",
                  "type": "uint256"
                },
                {
                  "internalType": "uint256",
                  "name": "highestPrice",
                  "type": "uint256"
                },
                {
                  "internalType": "address",
                  "name": "highestPayer",
                  "type": "address"
                },
                {
                  "internalType": "bool",
                  "name": "ended",
                  "type": "bool"
                }
              ],
              "internalType": "struct Oasis_NFTMarketplace.AuctionSession",
              "name": "auction",
              "type": "tuple"
            },
            {
              "internalType": "bool",
              "name": "sold",
              "type": "bool"
            }
          ],
          "internalType": "struct Oasis_NFTMarketplace.MarketItem[]",
          "name": "",
          "type": "tuple[]"
        }
      ],
      "stateMutability": "view",
      "type": "function"
    },
    {
      "inputs": [],
      "name": "fetchMyNFT",
      "outputs": [
        {
          "components": [
            {
              "internalType": "uint256",
              "name": "tokenId",
              "type": "uint256"
            },
            {
              "internalType": "address payable",
              "name": "seller",
              "type": "address"
            },
            {
              "internalType": "address payable",
              "name": "owner",
              "type": "address"
            },
            {
              "internalType": "uint256",
              "name": "price",
              "type": "uint256"
            },
            {
              "components": [
                {
                  "internalType": "uint256",
                  "name": "AuctionId",
                  "type": "uint256"
                },
                {
                  "internalType": "uint256",
                  "name": "acutionEndTime",
                  "type": "uint256"
                },
                {
                  "internalType": "uint256",
                  "name": "highestPrice",
                  "type": "uint256"
                },
                {
                  "internalType": "address",
                  "name": "highestPayer",
                  "type": "address"
                },
                {
                  "internalType": "bool",
                  "name": "ended",
                  "type": "bool"
                }
              ],
              "internalType": "struct Oasis_NFTMarketplace.AuctionSession",
              "name": "auction",
              "type": "tuple"
            },
            {
              "internalType": "bool",
              "name": "sold",
              "type": "bool"
            }
          ],
          "internalType": "struct Oasis_NFTMarketplace.MarketItem[]",
          "name": "",
          "type": "tuple[]"
        }
      ],
      "stateMutability": "view",
      "type": "function"
    },
    {
      "inputs": [
        {
          "internalType": "uint256",
          "name": "tokenId",
          "type": "uint256"
        }
      ],
      "name": "getApproved",
      "outputs": [
        {
          "internalType": "address",
          "name": "",
          "type": "address"
        }
      ],
      "stateMutability": "view",
      "type": "function"
    },
    {
      "inputs": [],
      "name": "getListingPrice",
      "outputs": [
        {
          "internalType": "uint256",
          "name": "",
          "type": "uint256"
        }
      ],
      "stateMutability": "view",
      "type": "function"
    },
    {
      "inputs": [
        {
          "internalType": "uint256",
          "name": "_tokenId",
          "type": "uint256"
        }
      ],
      "name": "getSingleNFT",
      "outputs": [
        {
          "components": [
            {
              "internalType": "uint256",
              "name": "tokenId",
              "type": "uint256"
            },
            {
              "internalType": "address payable",
              "name": "seller",
              "type": "address"
            },
            {
              "internalType": "address payable",
              "name": "owner",
              "type": "address"
            },
            {
              "internalType": "uint256",
              "name": "price",
              "type": "uint256"
            },
            {
              "components": [
                {
                  "internalType": "uint256",
                  "name": "AuctionId",
                  "type": "uint256"
                },
                {
                  "internalType": "uint256",
                  "name": "acutionEndTime",
                  "type": "uint256"
                },
                {
                  "internalType": "uint256",
                  "name": "highestPrice",
                  "type": "uint256"
                },
                {
                  "internalType": "address",
                  "name": "highestPayer",
                  "type": "address"
                },
                {
                  "internalType": "bool",
                  "name": "ended",
                  "type": "bool"
                }
              ],
              "internalType": "struct Oasis_NFTMarketplace.AuctionSession",
              "name": "auction",
              "type": "tuple"
            },
            {
              "internalType": "bool",
              "name": "sold",
              "type": "bool"
            }
          ],
          "internalType": "struct Oasis_NFTMarketplace.MarketItem[]",
          "name": "",
          "type": "tuple[]"
        }
      ],
      "stateMutability": "view",
      "type": "function"
    },
    {
      "inputs": [
        {
          "internalType": "address",
          "name": "owner",
          "type": "address"
        },
        {
          "internalType": "address",
          "name": "operator",
          "type": "address"
        }
      ],
      "name": "isApprovedForAll",
      "outputs": [
        {
          "internalType": "bool",
          "name": "",
          "type": "bool"
        }
      ],
      "stateMutability": "view",
      "type": "function"
    },
    {
      "inputs": [],
      "name": "name",
      "outputs": [
        {
          "internalType": "string",
          "name": "",
          "type": "string"
        }
      ],
      "stateMutability": "view",
      "type": "function"
    },
    {
      "inputs": [
        {
          "internalType": "uint256",
          "name": "tokenId",
          "type": "uint256"
        }
      ],
      "name": "ownerOf",
      "outputs": [
        {
          "internalType": "address",
          "name": "",
          "type": "address"
        }
      ],
      "stateMutability": "view",
      "type": "function"
    },
    {
      "inputs": [
        {
          "internalType": "uint256",
          "name": "tokenId",
          "type": "uint256"
        },
        {
          "internalType": "uint256",
          "name": "price",
          "type": "uint256"
        }
      ],
      "name": "reSetPrice",
      "outputs": [],
      "stateMutability": "payable",
      "type": "function"
    },
    {
      "inputs": [
        {
          "internalType": "uint256",
          "name": "tokenId",
          "type": "uint256"
        },
        {
          "internalType": "uint256",
          "name": "price",
          "type": "uint256"
        }
      ],
      "name": "resellToken",
      "outputs": [],
      "stateMutability": "payable",
      "type": "function"
    },
    {
      "inputs": [
        {
          "internalType": "address",
          "name": "from",
          "type": "address"
        },
        {
          "internalType": "address",
          "name": "to",
          "type": "address"
        },
        {
          "internalType": "uint256",
          "name": "tokenId",
          "type": "uint256"
        }
      ],
      "name": "safeTransferFrom",
      "outputs": [],
      "stateMutability": "nonpayable",
      "type": "function"
    },
    {
      "inputs": [
        {
          "internalType": "address",
          "name": "from",
          "type": "address"
        },
        {
          "internalType": "address",
          "name": "to",
          "type": "address"
        },
        {
          "internalType": "uint256",
          "name": "tokenId",
          "type": "uint256"
        },
        {
          "internalType": "bytes",
          "name": "data",
          "type": "bytes"
        }
      ],
      "name": "safeTransferFrom",
      "outputs": [],
      "stateMutability": "nonpayable",
      "type": "function"
    },
    {
      "inputs": [
        {
          "internalType": "address",
          "name": "operator",
          "type": "address"
        },
        {
          "internalType": "bool",
          "name": "approved",
          "type": "bool"
        }
      ],
      "name": "setApprovalForAll",
      "outputs": [],
      "stateMutability": "nonpayable",
      "type": "function"
    },
    {
      "inputs": [
        {
          "internalType": "bytes4",
          "name": "interfaceId",
          "type": "bytes4"
        }
      ],
      "name": "supportsInterface",
      "outputs": [
        {
          "internalType": "bool",
          "name": "",
          "type": "bool"
        }
      ],
      "stateMutability": "view",
      "type": "function"
    },
    {
      "inputs": [],
      "name": "symbol",
      "outputs": [
        {
          "internalType": "string",
          "name": "",
          "type": "string"
        }
      ],
      "stateMutability": "view",
      "type": "function"
    },
    {
      "inputs": [
        {
          "internalType": "uint256",
          "name": "tokenId",
          "type": "uint256"
        }
      ],
      "name": "tokenURI",
      "outputs": [
        {
          "internalType": "string",
          "name": "",
          "type": "string"
        }
      ],
      "stateMutability": "view",
      "type": "function"
    },
    {
      "inputs": [
        {
          "internalType": "address",
          "name": "from",
          "type": "address"
        },
        {
          "internalType": "address",
          "name": "to",
          "type": "address"
        },
        {
          "internalType": "uint256",
          "name": "tokenId",
          "type": "uint256"
        }
      ],
      "name": "transferFrom",
      "outputs": [],
      "stateMutability": "nonpayable",
      "type": "function"
    }
  ],
  "bytecode": "0x608060405266038d7ea4c68000600a553480156200001c57600080fd5b506040518060400160405280600b81526020017f4f6173697320746f6b656e0000000000000000000000000000000000000000008152506040518060400160405280600381526020017f4f4153000000000000000000000000000000000000000000000000000000000081525081600090816200009a919062000370565b508060019081620000ac919062000370565b50505033600b60006101000a81548173ffffffffffffffffffffffffffffffffffffffff021916908373ffffffffffffffffffffffffffffffffffffffff16021790555062000457565b600081519050919050565b7f4e487b7100000000000000000000000000000000000000000000000000000000600052604160045260246000fd5b7f4e487b7100000000000000000000000000000000000000000000000000000000600052602260045260246000fd5b600060028204905060018216806200017857607f821691505b6020821081036200018e576200018d62000130565b5b50919050565b60008190508160005260206000209050919050565b60006020601f8301049050919050565b600082821b905092915050565b600060088302620001f87fffffffffffffffffffffffffffffffffffffffffffffffffffffffffffffffff82620001b9565b620002048683620001b9565b95508019841693508086168417925050509392505050565b6000819050919050565b6000819050919050565b6000620002516200024b62000245846200021c565b62000226565b6200021c565b9050919050565b6000819050919050565b6200026d8362000230565b620002856200027c8262000258565b848454620001c6565b825550505050565b600090565b6200029c6200028d565b620002a981848462000262565b505050565b5b81811015620002d157620002c560008262000292565b600181019050620002af565b5050565b601f8211156200032057620002ea8162000194565b620002f584620001a9565b8101602085101562000305578190505b6200031d6200031485620001a9565b830182620002ae565b50505b505050565b600082821c905092915050565b6000620003456000198460080262000325565b1980831691505092915050565b600062000360838362000332565b9150826002028217905092915050565b6200037b82620000f6565b67ffffffffffffffff81111562000397576200039662000101565b5b620003a382546200015f565b620003b0828285620002d5565b600060209050601f831160018114620003e85760008415620003d3578287015190505b620003df858262000352565b8655506200044f565b601f198416620003f88662000194565b60005b828110156200042257848901518255600182019150602085019450602081019050620003fb565b868310156200044257848901516200043e601f89168262000332565b8355505b6001600288020188555050505b505050505050565b615ee380620004676000396000f3fe60806040526004361061019c5760003560e01c806372b3b620116100ec578063be9af5361161008a578063cda4beef11610064578063cda4beef146105cf578063d509b300146105eb578063e219fc7514610628578063e985e9c5146106445761019c565b8063be9af5361461054b578063c18763f714610567578063c87b56dd146105925761019c565b80639c490c06116100c65780639c490c06146104a0578063a22cb465146104bc578063b10d513f146104e5578063b88d4fde146105225761019c565b806372b3b6201461041a5780638fafd0211461044a57806395d89b41146104755761019c565b806332246e9f1161015957806345f8fa801161013357806345f8fa80146103385780636352211e146103635780636718afb3146103a057806370a08231146103dd5761019c565b806332246e9f146102c357806342842e0e146102f3578063454a2ab31461031c5761019c565b806301ffc9a7146101a157806306fdde03146101de578063081812fc14610209578063095ea7b31461024657806312e855851461026f57806323b872dd1461029a575b600080fd5b3480156101ad57600080fd5b506101c860048036038101906101c3919061444a565b610681565b6040516101d59190614492565b60405180910390f35b3480156101ea57600080fd5b506101f36106e2565b604051610200919061453d565b60405180910390f35b34801561021557600080fd5b50610230600480360381019061022b9190614595565b610774565b60405161023d9190614603565b60405180910390f35b34801561025257600080fd5b5061026d6004803603810190610268919061464a565b6107ba565b005b34801561027b57600080fd5b506102846108d1565b6040516102919190614699565b60405180910390f35b3480156102a657600080fd5b506102c160048036038101906102bc91906146b4565b6108db565b005b6102dd60048036038101906102d89190614595565b61093b565b6040516102ea9190614492565b60405180910390f35b3480156102ff57600080fd5b5061031a600480360381019061031591906146b4565b610e0a565b005b61033660048036038101906103319190614595565b610e2a565b005b34801561034457600080fd5b5061034d61121b565b60405161035a91906148ea565b60405180910390f35b34801561036f57600080fd5b5061038a60048036038101906103859190614595565b6115ac565b6040516103979190614603565b60405180910390f35b3480156103ac57600080fd5b506103c760048036038101906103c29190614595565b611632565b6040516103d49190614492565b60405180910390f35b3480156103e957600080fd5b5061040460048036038101906103ff919061490c565b61178b565b6040516104119190614699565b60405180910390f35b610434600480360381019061042f9190614a6e565b611842565b6040516104419190614699565b60405180910390f35b34801561045657600080fd5b5061045f6118c2565b60405161046c91906148ea565b60405180910390f35b34801561048157600080fd5b5061048a611bc5565b604051610497919061453d565b60405180910390f35b6104ba60048036038101906104b59190614aca565b611c57565b005b3480156104c857600080fd5b506104e360048036038101906104de9190614b36565b611d1a565b005b3480156104f157600080fd5b5061050c60048036038101906105079190614595565b611d30565b60405161051991906148ea565b60405180910390f35b34801561052e57600080fd5b5061054960048036038101906105449190614c17565b611f4f565b005b61056560048036038101906105609190614595565b611fb1565b005b34801561057357600080fd5b5061057c61217e565b60405161058991906148ea565b60405180910390f35b34801561059e57600080fd5b506105b960048036038101906105b49190614595565b61250f565b6040516105c6919061453d565b60405180910390f35b6105e960048036038101906105e49190614c9a565b612621565b005b3480156105f757600080fd5b50610612600480360381019061060d9190614aca565b6129f8565b60405161061f91906148ea565b60405180910390f35b610642600480360381019061063d9190614aca565b612d31565b005b34801561065057600080fd5b5061066b60048036038101906106669190614ced565b612f91565b6040516106789190614492565b60405180910390f35b6000634906490660e01b7bffffffffffffffffffffffffffffffffffffffffffffffffffffffff1916827bffffffffffffffffffffffffffffffffffffffffffffffffffffffff191614806106db57506106da82613025565b5b9050919050565b6060600080546106f190614d5c565b80601f016020809104026020016040519081016040528092919081815260200182805461071d90614d5c565b801561076a5780601f1061073f5761010080835404028352916020019161076a565b820191906000526020600020905b81548152906001019060200180831161074d57829003601f168201915b5050505050905090565b600061077f82613107565b6004600083815260200190815260200160002060009054906101000a900473ffffffffffffffffffffffffffffffffffffffff169050919050565b60006107c5826115ac565b90508073ffffffffffffffffffffffffffffffffffffffff168373ffffffffffffffffffffffffffffffffffffffff1603610835576040517f08c379a000000000000000000000000000000000000000000000000000000000815260040161082c90614dff565b60405180910390fd5b8073ffffffffffffffffffffffffffffffffffffffff16610854613152565b73ffffffffffffffffffffffffffffffffffffffff16148061088357506108828161087d613152565b612f91565b5b6108c2576040517f08c379a00000000000000000000000000000000000000000000000000000000081526004016108b990614e91565b60405180910390fd5b6108cc838361315a565b505050565b6000600a54905090565b6108ec6108e6613152565b82613213565b61092b576040517f08c379a000000000000000000000000000000000000000000000000000000000815260040161092290614f23565b60405180910390fd5b6109368383836132a8565b505050565b6000801515600c600084815260200190815260200160002060040160030160149054906101000a900460ff1615151461097357600080fd5b600c60008381526020019081526020016000206004016001015442116109ce576040517f08c379a00000000000000000000000000000000000000000000000000000000081526004016109c590614f8f565b60405180910390fd5b6001600c600084815260200190815260200160002060040160030160146101000a81548160ff021916908315150217905550600c600083815260200190815260200160002060010160009054906101000a900473ffffffffffffffffffffffffffffffffffffffff1673ffffffffffffffffffffffffffffffffffffffff16600c600084815260200190815260200160002060040160030160009054906101000a900473ffffffffffffffffffffffffffffffffffffffff1673ffffffffffffffffffffffffffffffffffffffff1603610adf57600c600083815260200190815260200160002060040160020154600c60008481526020019081526020016000206003018190555060019050610e05565b7f6e0e2174dbf7b77c08b6f9a2799b9feda84a6d54a5644864582040100a47d4c5600c600084815260200190815260200160002060040160030160009054906101000a900473ffffffffffffffffffffffffffffffffffffffff16600c600085815260200190815260200160002060040160020154604051610b62929190614faf565b60405180910390a1600c600083815260200190815260200160002060010160009054906101000a900473ffffffffffffffffffffffffffffffffffffffff1673ffffffffffffffffffffffffffffffffffffffff166108fc600c6000858152602001908152602001600020600401600201549081150290604051600060405180830381858888f19350505050158015610bff573d6000803e3d6000fd5b50600c600083815260200190815260200160002060040160030160009054906101000a900473ffffffffffffffffffffffffffffffffffffffff16600c600084815260200190815260200160002060020160006101000a81548173ffffffffffffffffffffffffffffffffffffffff021916908373ffffffffffffffffffffffffffffffffffffffff1602179055506001600c600084815260200190815260200160002060080160006101000a81548160ff0219169083151502179055506000600c600084815260200190815260200160002060010160006101000a81548173ffffffffffffffffffffffffffffffffffffffff021916908373ffffffffffffffffffffffffffffffffffffffff160217905550600c600083815260200190815260200160002060040160020154600c600084815260200190815260200160002060030181905550610d8b30600c600085815260200190815260200160002060040160030160009054906101000a900473ffffffffffffffffffffffffffffffffffffffff16846132a8565b600b60009054906101000a900473ffffffffffffffffffffffffffffffffffffffff1673ffffffffffffffffffffffffffffffffffffffff166108fc600a549081150290604051600060405180830381858888f19350505050158015610df5573d6000803e3d6000fd5b50610e0060086135a1565b600190505b919050565b610e2583838360405180602001604052806000815250611f4f565b505050565b3373ffffffffffffffffffffffffffffffffffffffff16600c600083815260200190815260200160002060020160009054906101000a900473ffffffffffffffffffffffffffffffffffffffff1673ffffffffffffffffffffffffffffffffffffffff1614158015610efe57503373ffffffffffffffffffffffffffffffffffffffff16600c600083815260200190815260200160002060010160009054906101000a900473ffffffffffffffffffffffffffffffffffffffff1673ffffffffffffffffffffffffffffffffffffffff1614155b610f3d576040517f08c379a0000000000000000000000000000000000000000000000000000000008152600401610f349061504a565b60405180910390fd5b600c600082815260200190815260200160002060040160010154421115610f99576040517f08c379a0000000000000000000000000000000000000000000000000000000008152600401610f90906150b6565b60405180910390fd5b600c6000828152602001908152602001600020600401600201543411610ff4576040517f08c379a0000000000000000000000000000000000000000000000000000000008152600401610feb90615148565b60405180910390fd5b600c600082815260200190815260200160002060010160009054906101000a900473ffffffffffffffffffffffffffffffffffffffff1673ffffffffffffffffffffffffffffffffffffffff16600c600083815260200190815260200160002060040160030160009054906101000a900473ffffffffffffffffffffffffffffffffffffffff1673ffffffffffffffffffffffffffffffffffffffff161461116957600c600082815260200190815260200160002060040160020154600d6000600c60008581526020019081526020016000206004016000015481526020019081526020016000206000600c600085815260200190815260200160002060040160030160009054906101000a900473ffffffffffffffffffffffffffffffffffffffff1673ffffffffffffffffffffffffffffffffffffffff1673ffffffffffffffffffffffffffffffffffffffff16815260200190815260200160002060008282546111619190615197565b925050819055505b34600c60008381526020019081526020016000206004016002018190555033600c600083815260200190815260200160002060040160030160006101000a81548173ffffffffffffffffffffffffffffffffffffffff021916908373ffffffffffffffffffffffffffffffffffffffff1602179055507fb091cbf32011e16665d2f9876bf7a25e29544834b578c6cdd39ac1e4676954313334604051611210929190614faf565b60405180910390a150565b6060600061122960076135b7565b905060008060005b838110156112d2573373ffffffffffffffffffffffffffffffffffffffff16600c60006001846112619190615197565b815260200190815260200160002060010160009054906101000a900473ffffffffffffffffffffffffffffffffffffffff1673ffffffffffffffffffffffffffffffffffffffff16036112be576001836112bb9190615197565b92505b6001816112cb9190615197565b9050611231565b5060008267ffffffffffffffff8111156112ef576112ee614943565b5b60405190808252806020026020018201604052801561132857816020015b61131561432d565b81526020019060019003908161130d5790505b50905060005b848110156115a1573373ffffffffffffffffffffffffffffffffffffffff16600c600060018461135e9190615197565b815260200190815260200160002060010160009054906101000a900473ffffffffffffffffffffffffffffffffffffffff1673ffffffffffffffffffffffffffffffffffffffff160361158d5760006001826113ba9190615197565b90506000600c60008381526020019081526020016000209050806040518060c0016040529081600082015481526020016001820160009054906101000a900473ffffffffffffffffffffffffffffffffffffffff1673ffffffffffffffffffffffffffffffffffffffff1673ffffffffffffffffffffffffffffffffffffffff1681526020016002820160009054906101000a900473ffffffffffffffffffffffffffffffffffffffff1673ffffffffffffffffffffffffffffffffffffffff1673ffffffffffffffffffffffffffffffffffffffff16815260200160038201548152602001600482016040518060a00160405290816000820154815260200160018201548152602001600282015481526020016003820160009054906101000a900473ffffffffffffffffffffffffffffffffffffffff1673ffffffffffffffffffffffffffffffffffffffff1673ffffffffffffffffffffffffffffffffffffffff1681526020016003820160149054906101000a900460ff16151515158152505081526020016008820160009054906101000a900460ff1615151515815250508486815181106115705761156f6151cb565b5b60200260200101819052506001856115889190615197565b945050505b60018161159a9190615197565b905061132e565b508094505050505090565b6000806115b8836135c5565b9050600073ffffffffffffffffffffffffffffffffffffffff168173ffffffffffffffffffffffffffffffffffffffff1603611629576040517f08c379a000000000000000000000000000000000000000000000000000000000815260040161162090615246565b60405180910390fd5b80915050919050565b600080600d600084815260200190815260200160002060003373ffffffffffffffffffffffffffffffffffffffff1673ffffffffffffffffffffffffffffffffffffffff1681526020019081526020016000205490506000811115611780576000600d600085815260200190815260200160002060003373ffffffffffffffffffffffffffffffffffffffff1673ffffffffffffffffffffffffffffffffffffffff168152602001908152602001600020819055503373ffffffffffffffffffffffffffffffffffffffff166108fc829081150290604051600060405180830381858888f1935050505061177f5780600d600085815260200190815260200160002060003373ffffffffffffffffffffffffffffffffffffffff1673ffffffffffffffffffffffffffffffffffffffff168152602001908152602001600020819055506000915050611786565b5b60019150505b919050565b60008073ffffffffffffffffffffffffffffffffffffffff168273ffffffffffffffffffffffffffffffffffffffff16036117fb576040517f08c379a00000000000000000000000000000000000000000000000000000000081526004016117f2906152d8565b60405180910390fd5b600360008373ffffffffffffffffffffffffffffffffffffffff1673ffffffffffffffffffffffffffffffffffffffff168152602001908152602001600020549050919050565b600061184e60076135a1565b600061185a60076135b7565b90506118663382613602565b611870818561381f565b61187a81846138c3565b82817fb640004f1d14576d0c209e240cad0410e0d8c0c33a09375861fbadae2588a98d333060006040516118b0939291906152f8565b60405180910390a38091505092915050565b606060006118d060076135b7565b905060006118de60086135b7565b826118e9919061532f565b90506000808267ffffffffffffffff81111561190857611907614943565b5b60405190808252806020026020018201604052801561194157816020015b61192e61432d565b8152602001906001900390816119265790505b50905060005b84811015611bba573073ffffffffffffffffffffffffffffffffffffffff16600c60006001846119779190615197565b815260200190815260200160002060020160009054906101000a900473ffffffffffffffffffffffffffffffffffffffff1673ffffffffffffffffffffffffffffffffffffffff1603611ba65760006001826119d39190615197565b90506000600c60008381526020019081526020016000209050806040518060c0016040529081600082015481526020016001820160009054906101000a900473ffffffffffffffffffffffffffffffffffffffff1673ffffffffffffffffffffffffffffffffffffffff1673ffffffffffffffffffffffffffffffffffffffff1681526020016002820160009054906101000a900473ffffffffffffffffffffffffffffffffffffffff1673ffffffffffffffffffffffffffffffffffffffff1673ffffffffffffffffffffffffffffffffffffffff16815260200160038201548152602001600482016040518060a00160405290816000820154815260200160018201548152602001600282015481526020016003820160009054906101000a900473ffffffffffffffffffffffffffffffffffffffff1673ffffffffffffffffffffffffffffffffffffffff1673ffffffffffffffffffffffffffffffffffffffff1681526020016003820160149054906101000a900460ff16151515158152505081526020016008820160009054906101000a900460ff161515151581525050848681518110611b8957611b886151cb565b5b6020026020010181905250600185611ba19190615197565b945050505b600181611bb39190615197565b9050611947565b508094505050505090565b606060018054611bd490614d5c565b80601f0160208091040260200160405190810160405280929190818152602001828054611c0090614d5c565b8015611c4d5780601f10611c2257610100808354040283529160200191611c4d565b820191906000526020600020905b815481529060010190602001808311611c3057829003601f168201915b5050505050905090565b3373ffffffffffffffffffffffffffffffffffffffff16600c600084815260200190815260200160002060010160009054906101000a900473ffffffffffffffffffffffffffffffffffffffff1673ffffffffffffffffffffffffffffffffffffffff1614611cfb576040517f08c379a0000000000000000000000000000000000000000000000000000000008152600401611cf2906153d5565b60405180910390fd5b80600c6000848152602001908152602001600020600301819055505050565b611d2c611d25613152565b8383613c08565b5050565b60606000600167ffffffffffffffff811115611d4f57611d4e614943565b5b604051908082528060200260200182016040528015611d8857816020015b611d7561432d565b815260200190600190039081611d6d5790505b509050600c60008481526020019081526020016000206040518060c0016040529081600082015481526020016001820160009054906101000a900473ffffffffffffffffffffffffffffffffffffffff1673ffffffffffffffffffffffffffffffffffffffff1673ffffffffffffffffffffffffffffffffffffffff1681526020016002820160009054906101000a900473ffffffffffffffffffffffffffffffffffffffff1673ffffffffffffffffffffffffffffffffffffffff1673ffffffffffffffffffffffffffffffffffffffff16815260200160038201548152602001600482016040518060a00160405290816000820154815260200160018201548152602001600282015481526020016003820160009054906101000a900473ffffffffffffffffffffffffffffffffffffffff1673ffffffffffffffffffffffffffffffffffffffff1673ffffffffffffffffffffffffffffffffffffffff1681526020016003820160149054906101000a900460ff16151515158152505081526020016008820160009054906101000a900460ff16151515158152505081600081518110611f3b57611f3a6151cb565b5b602002602001018190525080915050919050565b611f60611f5a613152565b83613213565b611f9f576040517f08c379a0000000000000000000000000000000000000000000000000000000008152600401611f9690614f23565b60405180910390fd5b611fab84848484613d74565b50505050565b6000600c600083815260200190815260200160002060030154905080341461200e576040517f08c379a000000000000000000000000000000000000000000000000000000000815260040161200590615467565b60405180910390fd5b600c600083815260200190815260200160002060010160009054906101000a900473ffffffffffffffffffffffffffffffffffffffff1673ffffffffffffffffffffffffffffffffffffffff166108fc349081150290604051600060405180830381858888f1935050505015801561208a573d6000803e3d6000fd5b5033600c600084815260200190815260200160002060020160006101000a81548173ffffffffffffffffffffffffffffffffffffffff021916908373ffffffffffffffffffffffffffffffffffffffff1602179055506001600c600084815260200190815260200160002060080160006101000a81548160ff0219169083151502179055506000600c600084815260200190815260200160002060010160006101000a81548173ffffffffffffffffffffffffffffffffffffffff021916908373ffffffffffffffffffffffffffffffffffffffff16021790555061216f60086135a1565b61217a3033846132a8565b5050565b6060600061218c60076135b7565b905060008060005b83811015612235573373ffffffffffffffffffffffffffffffffffffffff16600c60006001846121c49190615197565b815260200190815260200160002060020160009054906101000a900473ffffffffffffffffffffffffffffffffffffffff1673ffffffffffffffffffffffffffffffffffffffff16036122215760018361221e9190615197565b92505b60018161222e9190615197565b9050612194565b5060008267ffffffffffffffff81111561225257612251614943565b5b60405190808252806020026020018201604052801561228b57816020015b61227861432d565b8152602001906001900390816122705790505b50905060005b84811015612504573373ffffffffffffffffffffffffffffffffffffffff16600c60006001846122c19190615197565b815260200190815260200160002060020160009054906101000a900473ffffffffffffffffffffffffffffffffffffffff1673ffffffffffffffffffffffffffffffffffffffff16036124f057600060018261231d9190615197565b90506000600c60008381526020019081526020016000209050806040518060c0016040529081600082015481526020016001820160009054906101000a900473ffffffffffffffffffffffffffffffffffffffff1673ffffffffffffffffffffffffffffffffffffffff1673ffffffffffffffffffffffffffffffffffffffff1681526020016002820160009054906101000a900473ffffffffffffffffffffffffffffffffffffffff1673ffffffffffffffffffffffffffffffffffffffff1673ffffffffffffffffffffffffffffffffffffffff16815260200160038201548152602001600482016040518060a00160405290816000820154815260200160018201548152602001600282015481526020016003820160009054906101000a900473ffffffffffffffffffffffffffffffffffffffff1673ffffffffffffffffffffffffffffffffffffffff1673ffffffffffffffffffffffffffffffffffffffff1681526020016003820160149054906101000a900460ff16151515158152505081526020016008820160009054906101000a900460ff1615151515815250508486815181106124d3576124d26151cb565b5b60200260200101819052506001856124eb9190615197565b945050505b6001816124fd9190615197565b9050612291565b508094505050505090565b606061251a82613107565b600060066000848152602001908152602001600020805461253a90614d5c565b80601f016020809104026020016040519081016040528092919081815260200182805461256690614d5c565b80156125b35780601f10612588576101008083540402835291602001916125b3565b820191906000526020600020905b81548152906001019060200180831161259657829003601f168201915b5050505050905060006125c4613dd0565b905060008151036125d957819250505061261c565b60008251111561260e5780826040516020016125f69291906154c3565b6040516020818303038152906040529250505061261c565b61261784613de7565b925050505b919050565b60011515600c600085815260200190815260200160002060040160030160149054906101000a900460ff1615151461268e576040517f08c379a000000000000000000000000000000000000000000000000000000000815260040161268590615533565b60405180910390fd5b600a54341461269c57600080fd5b3373ffffffffffffffffffffffffffffffffffffffff16600c600085815260200190815260200160002060010160009054906101000a900473ffffffffffffffffffffffffffffffffffffffff1673ffffffffffffffffffffffffffffffffffffffff16148015612734575060001515600c600085815260200190815260200160002060080160009054906101000a900460ff161515145b806127d357503373ffffffffffffffffffffffffffffffffffffffff16600c600085815260200190815260200160002060020160009054906101000a900473ffffffffffffffffffffffffffffffffffffffff1673ffffffffffffffffffffffffffffffffffffffff161480156127d2575060011515600c600085815260200190815260200160002060080160009054906101000a900460ff161515145b5b156129f3576127e260096135a1565b6040518060a001604052806127f760096135b7565b815260200183426128089190615197565b81526020018281526020013373ffffffffffffffffffffffffffffffffffffffff16815260200160001515815250600c600085815260200190815260200160002060040160008201518160000155602082015181600101556040820151816002015560608201518160030160006101000a81548173ffffffffffffffffffffffffffffffffffffffff021916908373ffffffffffffffffffffffffffffffffffffffff16021790555060808201518160030160146101000a81548160ff02191690831515021790555090505060011515600c600085815260200190815260200160002060080160009054906101000a900460ff161515036129f2576000600c600085815260200190815260200160002060080160006101000a81548160ff02191690831515021790555033600c600085815260200190815260200160002060010160006101000a81548173ffffffffffffffffffffffffffffffffffffffff021916908373ffffffffffffffffffffffffffffffffffffffff16021790555030600c600085815260200190815260200160002060020160006101000a81548173ffffffffffffffffffffffffffffffffffffffff021916908373ffffffffffffffffffffffffffffffffffffffff1602179055506129e66008613e4f565b6129f13330856132a8565b5b5b505050565b60608183612a069190615553565b612a1060086135b7565b612a1a60076135b7565b612a24919061532f565b11612a2e57600080fd5b60008060008585612a3f9190615553565b905060008567ffffffffffffffff811115612a5d57612a5c614943565b5b604051908082528060200260200182016040528015612a9657816020015b612a8361432d565b815260200190600190039081612a7b5790505b5090506000612aa560076135b7565b90505b6000811115612d23573073ffffffffffffffffffffffffffffffffffffffff16600c600083815260200190815260200160002060020160009054906101000a900473ffffffffffffffffffffffffffffffffffffffff1673ffffffffffffffffffffffffffffffffffffffff1603612d0f57828410612cf75760008190506000600c60008381526020019081526020016000209050806040518060c0016040529081600082015481526020016001820160009054906101000a900473ffffffffffffffffffffffffffffffffffffffff1673ffffffffffffffffffffffffffffffffffffffff1673ffffffffffffffffffffffffffffffffffffffff1681526020016002820160009054906101000a900473ffffffffffffffffffffffffffffffffffffffff1673ffffffffffffffffffffffffffffffffffffffff1673ffffffffffffffffffffffffffffffffffffffff16815260200160038201548152602001600482016040518060a00160405290816000820154815260200160018201548152602001600282015481526020016003820160009054906101000a900473ffffffffffffffffffffffffffffffffffffffff1673ffffffffffffffffffffffffffffffffffffffff1673ffffffffffffffffffffffffffffffffffffffff1681526020016003820160149054906101000a900460ff16151515158152505081526020016008820160009054906101000a900460ff161515151581525050848881518110612cda57612cd96151cb565b5b6020026020010181905250600187612cf29190615197565b965050505b600184612d049190615197565b935086850315612d23575b600181612d1c919061532f565b9050612aa8565b508094505050505092915050565b3373ffffffffffffffffffffffffffffffffffffffff16600c600084815260200190815260200160002060020160009054906101000a900473ffffffffffffffffffffffffffffffffffffffff1673ffffffffffffffffffffffffffffffffffffffff1614612dd5576040517f08c379a0000000000000000000000000000000000000000000000000000000008152600401612dcc90615607565b60405180910390fd5b600a543414612e19576040517f08c379a0000000000000000000000000000000000000000000000000000000008152600401612e1090615699565b60405180910390fd5b6000600c600084815260200190815260200160002060080160006101000a81548160ff02191690831515021790555080600c60008481526020019081526020016000206003018190555033600c600084815260200190815260200160002060010160006101000a81548173ffffffffffffffffffffffffffffffffffffffff021916908373ffffffffffffffffffffffffffffffffffffffff16021790555030600c600084815260200190815260200160002060020160006101000a81548173ffffffffffffffffffffffffffffffffffffffff021916908373ffffffffffffffffffffffffffffffffffffffff160217905550612f176008613e4f565b612f223330846132a8565b600b60009054906101000a900473ffffffffffffffffffffffffffffffffffffffff1673ffffffffffffffffffffffffffffffffffffffff166108fc600a549081150290604051600060405180830381858888f19350505050158015612f8c573d6000803e3d6000fd5b505050565b6000600560008473ffffffffffffffffffffffffffffffffffffffff1673ffffffffffffffffffffffffffffffffffffffff16815260200190815260200160002060008373ffffffffffffffffffffffffffffffffffffffff1673ffffffffffffffffffffffffffffffffffffffff16815260200190815260200160002060009054906101000a900460ff16905092915050565b60007f80ac58cd000000000000000000000000000000000000000000000000000000007bffffffffffffffffffffffffffffffffffffffffffffffffffffffff1916827bffffffffffffffffffffffffffffffffffffffffffffffffffffffff191614806130f057507f5b5e139f000000000000000000000000000000000000000000000000000000007bffffffffffffffffffffffffffffffffffffffffffffffffffffffff1916827bffffffffffffffffffffffffffffffffffffffffffffffffffffffff1916145b8061310057506130ff82613eab565b5b9050919050565b61311081613f15565b61314f576040517f08c379a000000000000000000000000000000000000000000000000000000000815260040161314690615246565b60405180910390fd5b50565b600033905090565b816004600083815260200190815260200160002060006101000a81548173ffffffffffffffffffffffffffffffffffffffff021916908373ffffffffffffffffffffffffffffffffffffffff160217905550808273ffffffffffffffffffffffffffffffffffffffff166131cd836115ac565b73ffffffffffffffffffffffffffffffffffffffff167f8c5be1e5ebec7d5bd14f71427d1e84f3dd0314c0f7b2291e5b200ac8c7c3b92560405160405180910390a45050565b60008061321f836115ac565b90508073ffffffffffffffffffffffffffffffffffffffff168473ffffffffffffffffffffffffffffffffffffffff16148061326157506132608185612f91565b5b8061329f57508373ffffffffffffffffffffffffffffffffffffffff1661328784610774565b73ffffffffffffffffffffffffffffffffffffffff16145b91505092915050565b8273ffffffffffffffffffffffffffffffffffffffff166132c8826115ac565b73ffffffffffffffffffffffffffffffffffffffff161461331e576040517f08c379a00000000000000000000000000000000000000000000000000000000081526004016133159061572b565b60405180910390fd5b600073ffffffffffffffffffffffffffffffffffffffff168273ffffffffffffffffffffffffffffffffffffffff160361338d576040517f08c379a0000000000000000000000000000000000000000000000000000000008152600401613384906157bd565b60405180910390fd5b61339a8383836001613f56565b8273ffffffffffffffffffffffffffffffffffffffff166133ba826115ac565b73ffffffffffffffffffffffffffffffffffffffff1614613410576040517f08c379a00000000000000000000000000000000000000000000000000000000081526004016134079061572b565b60405180910390fd5b6004600082815260200190815260200160002060006101000a81549073ffffffffffffffffffffffffffffffffffffffff02191690556001600360008573ffffffffffffffffffffffffffffffffffffffff1673ffffffffffffffffffffffffffffffffffffffff168152602001908152602001600020600082825403925050819055506001600360008473ffffffffffffffffffffffffffffffffffffffff1673ffffffffffffffffffffffffffffffffffffffff16815260200190815260200160002060008282540192505081905550816002600083815260200190815260200160002060006101000a81548173ffffffffffffffffffffffffffffffffffffffff021916908373ffffffffffffffffffffffffffffffffffffffff160217905550808273ffffffffffffffffffffffffffffffffffffffff168473ffffffffffffffffffffffffffffffffffffffff167fddf252ad1be2c89b69c2b068fc378daa952ba7f163c4a11628f55a4df523b3ef60405160405180910390a461359c8383836001613f5c565b505050565b6001816000016000828254019250508190555050565b600081600001549050919050565b60006002600083815260200190815260200160002060009054906101000a900473ffffffffffffffffffffffffffffffffffffffff169050919050565b600073ffffffffffffffffffffffffffffffffffffffff168273ffffffffffffffffffffffffffffffffffffffff1603613671576040517f08c379a000000000000000000000000000000000000000000000000000000000815260040161366890615829565b60405180910390fd5b61367a81613f15565b156136ba576040517f08c379a00000000000000000000000000000000000000000000000000000000081526004016136b190615895565b60405180910390fd5b6136c8600083836001613f56565b6136d181613f15565b15613711576040517f08c379a000000000000000000000000000000000000000000000000000000000815260040161370890615895565b60405180910390fd5b6001600360008473ffffffffffffffffffffffffffffffffffffffff1673ffffffffffffffffffffffffffffffffffffffff16815260200190815260200160002060008282540192505081905550816002600083815260200190815260200160002060006101000a81548173ffffffffffffffffffffffffffffffffffffffff021916908373ffffffffffffffffffffffffffffffffffffffff160217905550808273ffffffffffffffffffffffffffffffffffffffff16600073ffffffffffffffffffffffffffffffffffffffff167fddf252ad1be2c89b69c2b068fc378daa952ba7f163c4a11628f55a4df523b3ef60405160405180910390a461381b600083836001613f5c565b5050565b61382882613f15565b613867576040517f08c379a000000000000000000000000000000000000000000000000000000000815260040161385e90615927565b60405180910390fd5b806006600084815260200190815260200160002090816138879190615af3565b507ff8e1a15aba9398e019f0b49df1a4fde98ee17ae345cb5f6b5e2c27f5033e8ce7826040516138b79190614699565b60405180910390a15050565b60008111613906576040517f08c379a00000000000000000000000000000000000000000000000000000000081526004016138fd90615c11565b60405180910390fd5b600a54341461394a576040517f08c379a000000000000000000000000000000000000000000000000000000000815260040161394190615699565b60405180910390fd5b6040518060c001604052808381526020013373ffffffffffffffffffffffffffffffffffffffff1681526020013073ffffffffffffffffffffffffffffffffffffffff1681526020018281526020016040518060a001604052806000815260200160008152602001600081526020013373ffffffffffffffffffffffffffffffffffffffff16815260200160011515815250815260200160001515815250600c60008481526020019081526020016000206000820151816000015560208201518160010160006101000a81548173ffffffffffffffffffffffffffffffffffffffff021916908373ffffffffffffffffffffffffffffffffffffffff16021790555060408201518160020160006101000a81548173ffffffffffffffffffffffffffffffffffffffff021916908373ffffffffffffffffffffffffffffffffffffffff1602179055506060820151816003015560808201518160040160008201518160000155602082015181600101556040820151816002015560608201518160030160006101000a81548173ffffffffffffffffffffffffffffffffffffffff021916908373ffffffffffffffffffffffffffffffffffffffff16021790555060808201518160030160146101000a81548160ff021916908315150217905550505060a08201518160080160006101000a81548160ff021916908315150217905550905050613b5b3330846132a8565b80827fb640004f1d14576d0c209e240cad0410e0d8c0c33a09375861fbadae2588a98d33306000604051613b91939291906152f8565b60405180910390a3600b60009054906101000a900473ffffffffffffffffffffffffffffffffffffffff1673ffffffffffffffffffffffffffffffffffffffff166108fc600a549081150290604051600060405180830381858888f19350505050158015613c03573d6000803e3d6000fd5b505050565b8173ffffffffffffffffffffffffffffffffffffffff168373ffffffffffffffffffffffffffffffffffffffff1603613c76576040517f08c379a0000000000000000000000000000000000000000000000000000000008152600401613c6d90615c7d565b60405180910390fd5b80600560008573ffffffffffffffffffffffffffffffffffffffff1673ffffffffffffffffffffffffffffffffffffffff16815260200190815260200160002060008473ffffffffffffffffffffffffffffffffffffffff1673ffffffffffffffffffffffffffffffffffffffff16815260200190815260200160002060006101000a81548160ff0219169083151502179055508173ffffffffffffffffffffffffffffffffffffffff168373ffffffffffffffffffffffffffffffffffffffff167f17307eab39ab6107e8899845ad3d59bd9653f200f220920489ca2b5937696c3183604051613d679190614492565b60405180910390a3505050565b613d7f8484846132a8565b613d8b84848484613f62565b613dca576040517f08c379a0000000000000000000000000000000000000000000000000000000008152600401613dc190615d0f565b60405180910390fd5b50505050565b606060405180602001604052806000815250905090565b6060613df282613107565b6000613dfc613dd0565b90506000815111613e1c5760405180602001604052806000815250613e47565b80613e26846140e9565b604051602001613e379291906154c3565b6040516020818303038152906040525b915050919050565b60008160000154905060008111613e9b576040517f08c379a0000000000000000000000000000000000000000000000000000000008152600401613e9290615d7b565b60405180910390fd5b6001810382600001819055505050565b60007f01ffc9a7000000000000000000000000000000000000000000000000000000007bffffffffffffffffffffffffffffffffffffffffffffffffffffffff1916827bffffffffffffffffffffffffffffffffffffffffffffffffffffffff1916149050919050565b60008073ffffffffffffffffffffffffffffffffffffffff16613f37836135c5565b73ffffffffffffffffffffffffffffffffffffffff1614159050919050565b50505050565b50505050565b6000613f838473ffffffffffffffffffffffffffffffffffffffff166141b7565b156140dc578373ffffffffffffffffffffffffffffffffffffffff1663150b7a02613fac613152565b8786866040518563ffffffff1660e01b8152600401613fce9493929190615df0565b6020604051808303816000875af192505050801561400a57506040513d601f19601f820116820180604052508101906140079190615e51565b60015b61408c573d806000811461403a576040519150601f19603f3d011682016040523d82523d6000602084013e61403f565b606091505b506000815103614084576040517f08c379a000000000000000000000000000000000000000000000000000000000815260040161407b90615d0f565b60405180910390fd5b805181602001fd5b63150b7a0260e01b7bffffffffffffffffffffffffffffffffffffffffffffffffffffffff1916817bffffffffffffffffffffffffffffffffffffffffffffffffffffffff1916149150506140e1565b600190505b949350505050565b6060600060016140f8846141da565b01905060008167ffffffffffffffff81111561411757614116614943565b5b6040519080825280601f01601f1916602001820160405280156141495781602001600182028036833780820191505090505b509050600082602001820190505b6001156141ac578080600190039150507f3031323334353637383961626364656600000000000000000000000000000000600a86061a8153600a85816141a05761419f615e7e565b5b04945060008503614157575b819350505050919050565b6000808273ffffffffffffffffffffffffffffffffffffffff163b119050919050565b600080600090507a184f03e93ff9f4daa797ed6e38ed64bf6a1f0100000000000000008310614238577a184f03e93ff9f4daa797ed6e38ed64bf6a1f010000000000000000838161422e5761422d615e7e565b5b0492506040810190505b6d04ee2d6d415b85acef81000000008310614275576d04ee2d6d415b85acef8100000000838161426b5761426a615e7e565b5b0492506020810190505b662386f26fc1000083106142a457662386f26fc10000838161429a57614299615e7e565b5b0492506010810190505b6305f5e10083106142cd576305f5e10083816142c3576142c2615e7e565b5b0492506008810190505b61271083106142f25761271083816142e8576142e7615e7e565b5b0492506004810190505b60648310614315576064838161430b5761430a615e7e565b5b0492506002810190505b600a8310614324576001810190505b80915050919050565b6040518060c0016040528060008152602001600073ffffffffffffffffffffffffffffffffffffffff168152602001600073ffffffffffffffffffffffffffffffffffffffff16815260200160008152602001614388614397565b81526020016000151581525090565b6040518060a00160405280600081526020016000815260200160008152602001600073ffffffffffffffffffffffffffffffffffffffff1681526020016000151581525090565b6000604051905090565b600080fd5b600080fd5b60007fffffffff0000000000000000000000000000000000000000000000000000000082169050919050565b614427816143f2565b811461443257600080fd5b50565b6000813590506144448161441e565b92915050565b6000602082840312156144605761445f6143e8565b5b600061446e84828501614435565b91505092915050565b60008115159050919050565b61448c81614477565b82525050565b60006020820190506144a76000830184614483565b92915050565b600081519050919050565b600082825260208201905092915050565b60005b838110156144e75780820151818401526020810190506144cc565b60008484015250505050565b6000601f19601f8301169050919050565b600061450f826144ad565b61451981856144b8565b93506145298185602086016144c9565b614532816144f3565b840191505092915050565b600060208201905081810360008301526145578184614504565b905092915050565b6000819050919050565b6145728161455f565b811461457d57600080fd5b50565b60008135905061458f81614569565b92915050565b6000602082840312156145ab576145aa6143e8565b5b60006145b984828501614580565b91505092915050565b600073ffffffffffffffffffffffffffffffffffffffff82169050919050565b60006145ed826145c2565b9050919050565b6145fd816145e2565b82525050565b600060208201905061461860008301846145f4565b92915050565b614627816145e2565b811461463257600080fd5b50565b6000813590506146448161461e565b92915050565b60008060408385031215614661576146606143e8565b5b600061466f85828601614635565b925050602061468085828601614580565b9150509250929050565b6146938161455f565b82525050565b60006020820190506146ae600083018461468a565b92915050565b6000806000606084860312156146cd576146cc6143e8565b5b60006146db86828701614635565b93505060206146ec86828701614635565b92505060406146fd86828701614580565b9150509250925092565b600081519050919050565b600082825260208201905092915050565b6000819050602082019050919050565b61473c8161455f565b82525050565b600061474d826145c2565b9050919050565b61475d81614742565b82525050565b61476c816145e2565b82525050565b61477b81614477565b82525050565b60a0820160008201516147976000850182614733565b5060208201516147aa6020850182614733565b5060408201516147bd6040850182614733565b5060608201516147d06060850182614763565b5060808201516147e36080850182614772565b50505050565b610140820160008201516148006000850182614733565b5060208201516148136020850182614754565b5060408201516148266040850182614754565b5060608201516148396060850182614733565b50608082015161484c6080850182614781565b5060a0820151614860610120850182614772565b50505050565b600061487283836147e9565b6101408301905092915050565b6000602082019050919050565b600061489782614707565b6148a18185614712565b93506148ac83614723565b8060005b838110156148dd5781516148c48882614866565b97506148cf8361487f565b9250506001810190506148b0565b5085935050505092915050565b60006020820190508181036000830152614904818461488c565b905092915050565b600060208284031215614922576149216143e8565b5b600061493084828501614635565b91505092915050565b600080fd5b600080fd5b7f4e487b7100000000000000000000000000000000000000000000000000000000600052604160045260246000fd5b61497b826144f3565b810181811067ffffffffffffffff8211171561499a57614999614943565b5b80604052505050565b60006149ad6143de565b90506149b98282614972565b919050565b600067ffffffffffffffff8211156149d9576149d8614943565b5b6149e2826144f3565b9050602081019050919050565b82818337600083830152505050565b6000614a11614a0c846149be565b6149a3565b905082815260208101848484011115614a2d57614a2c61493e565b5b614a388482856149ef565b509392505050565b600082601f830112614a5557614a54614939565b5b8135614a658482602086016149fe565b91505092915050565b60008060408385031215614a8557614a846143e8565b5b600083013567ffffffffffffffff811115614aa357614aa26143ed565b5b614aaf85828601614a40565b9250506020614ac085828601614580565b9150509250929050565b60008060408385031215614ae157614ae06143e8565b5b6000614aef85828601614580565b9250506020614b0085828601614580565b9150509250929050565b614b1381614477565b8114614b1e57600080fd5b50565b600081359050614b3081614b0a565b92915050565b60008060408385031215614b4d57614b4c6143e8565b5b6000614b5b85828601614635565b9250506020614b6c85828601614b21565b9150509250929050565b600067ffffffffffffffff821115614b9157614b90614943565b5b614b9a826144f3565b9050602081019050919050565b6000614bba614bb584614b76565b6149a3565b905082815260208101848484011115614bd657614bd561493e565b5b614be18482856149ef565b509392505050565b600082601f830112614bfe57614bfd614939565b5b8135614c0e848260208601614ba7565b91505092915050565b60008060008060808587031215614c3157614c306143e8565b5b6000614c3f87828801614635565b9450506020614c5087828801614635565b9350506040614c6187828801614580565b925050606085013567ffffffffffffffff811115614c8257614c816143ed565b5b614c8e87828801614be9565b91505092959194509250565b600080600060608486031215614cb357614cb26143e8565b5b6000614cc186828701614580565b9350506020614cd286828701614580565b9250506040614ce386828701614580565b9150509250925092565b60008060408385031215614d0457614d036143e8565b5b6000614d1285828601614635565b9250506020614d2385828601614635565b9150509250929050565b7f4e487b7100000000000000000000000000000000000000000000000000000000600052602260045260246000fd5b60006002820490506001821680614d7457607f821691505b602082108103614d8757614d86614d2d565b5b50919050565b7f4552433732313a20617070726f76616c20746f2063757272656e74206f776e6560008201527f7200000000000000000000000000000000000000000000000000000000000000602082015250565b6000614de96021836144b8565b9150614df482614d8d565b604082019050919050565b60006020820190508181036000830152614e1881614ddc565b9050919050565b7f4552433732313a20617070726f76652063616c6c6572206973206e6f7420746f60008201527f6b656e206f776e6572206f7220617070726f76656420666f7220616c6c000000602082015250565b6000614e7b603d836144b8565b9150614e8682614e1f565b604082019050919050565b60006020820190508181036000830152614eaa81614e6e565b9050919050565b7f4552433732313a2063616c6c6572206973206e6f7420746f6b656e206f776e6560008201527f72206f7220617070726f76656400000000000000000000000000000000000000602082015250565b6000614f0d602d836144b8565b9150614f1882614eb1565b604082019050919050565b60006020820190508181036000830152614f3c81614f00565b9050919050565b7f4974206973206e6f742074686520656e642074696d6500000000000000000000600082015250565b6000614f796016836144b8565b9150614f8482614f43565b602082019050919050565b60006020820190508181036000830152614fa881614f6c565b9050919050565b6000604082019050614fc460008301856145f4565b614fd1602083018461468a565b9392505050565b7f4f776e657220616e642073656c6c65722063616e206e6f74206275792074686960008201527f73206e6674000000000000000000000000000000000000000000000000000000602082015250565b60006150346025836144b8565b915061503f82614fd8565b604082019050919050565b6000602082019050818103600083015261506381615027565b9050919050565b7f5468652061756374696f6e2077617320656e6465640000000000000000000000600082015250565b60006150a06015836144b8565b91506150ab8261506a565b602082019050919050565b600060208201905081810360008301526150cf81615093565b9050919050565b7f596f7572207072696365206973206e6f7420746865206869676865737420707260008201527f6963650000000000000000000000000000000000000000000000000000000000602082015250565b60006151326023836144b8565b915061513d826150d6565b604082019050919050565b6000602082019050818103600083015261516181615125565b9050919050565b7f4e487b7100000000000000000000000000000000000000000000000000000000600052601160045260246000fd5b60006151a28261455f565b91506151ad8361455f565b92508282019050808211156151c5576151c4615168565b5b92915050565b7f4e487b7100000000000000000000000000000000000000000000000000000000600052603260045260246000fd5b7f4552433732313a20696e76616c696420746f6b656e2049440000000000000000600082015250565b60006152306018836144b8565b915061523b826151fa565b602082019050919050565b6000602082019050818103600083015261525f81615223565b9050919050565b7f4552433732313a2061646472657373207a65726f206973206e6f74206120766160008201527f6c6964206f776e65720000000000000000000000000000000000000000000000602082015250565b60006152c26029836144b8565b91506152cd82615266565b604082019050919050565b600060208201905081810360008301526152f1816152b5565b9050919050565b600060608201905061530d60008301866145f4565b61531a60208301856145f4565b6153276040830184614483565b949350505050565b600061533a8261455f565b91506153458361455f565b925082820390508181111561535d5761535c615168565b5b92915050565b7f4f6e6c79206974656d2073656c6c65722063616e20706572666f726d2074686960008201527f73206f7065726174696f6e000000000000000000000000000000000000000000602082015250565b60006153bf602b836144b8565b91506153ca82615363565b604082019050919050565b600060208201905081810360008301526153ee816153b2565b9050919050565b7f506c65617365207375626d6974207468652061736b696e67207072696365206960008201527f6e206f7264657220746f20636f6d706c65746520746865207075726368617365602082015250565b60006154516040836144b8565b915061545c826153f5565b604082019050919050565b6000602082019050818103600083015261548081615444565b9050919050565b600081905092915050565b600061549d826144ad565b6154a78185615487565b93506154b78185602086016144c9565b80840191505092915050565b60006154cf8285615492565b91506154db8284615492565b91508190509392505050565b7f546865204e46542069732062696464696e670000000000000000000000000000600082015250565b600061551d6012836144b8565b9150615528826154e7565b602082019050919050565b6000602082019050818103600083015261554c81615510565b9050919050565b600061555e8261455f565b91506155698361455f565b92508282026155778161455f565b9150828204841483151761558e5761558d615168565b5b5092915050565b7f4f6e6c79206974656d206f776e65722063616e20706572666f726d207468697360008201527f206f7065726174696f6e00000000000000000000000000000000000000000000602082015250565b60006155f1602a836144b8565b91506155fc82615595565b604082019050919050565b60006020820190508181036000830152615620816155e4565b9050919050565b7f5072696365206d75737420626520657175616c20746f206c697374696e67207060008201527f7269636500000000000000000000000000000000000000000000000000000000602082015250565b60006156836024836144b8565b915061568e82615627565b604082019050919050565b600060208201905081810360008301526156b281615676565b9050919050565b7f4552433732313a207472616e736665722066726f6d20696e636f72726563742060008201527f6f776e6572000000000000000000000000000000000000000000000000000000602082015250565b60006157156025836144b8565b9150615720826156b9565b604082019050919050565b6000602082019050818103600083015261574481615708565b9050919050565b7f4552433732313a207472616e7366657220746f20746865207a65726f2061646460008201527f7265737300000000000000000000000000000000000000000000000000000000602082015250565b60006157a76024836144b8565b91506157b28261574b565b604082019050919050565b600060208201905081810360008301526157d68161579a565b9050919050565b7f4552433732313a206d696e7420746f20746865207a65726f2061646472657373600082015250565b60006158136020836144b8565b915061581e826157dd565b602082019050919050565b6000602082019050818103600083015261584281615806565b9050919050565b7f4552433732313a20746f6b656e20616c7265616479206d696e74656400000000600082015250565b600061587f601c836144b8565b915061588a82615849565b602082019050919050565b600060208201905081810360008301526158ae81615872565b9050919050565b7f45524337323155524953746f726167653a2055524920736574206f66206e6f6e60008201527f6578697374656e7420746f6b656e000000000000000000000000000000000000602082015250565b6000615911602e836144b8565b915061591c826158b5565b604082019050919050565b6000602082019050818103600083015261594081615904565b9050919050565b60008190508160005260206000209050919050565b60006020601f8301049050919050565b600082821b905092915050565b6000600883026159a97fffffffffffffffffffffffffffffffffffffffffffffffffffffffffffffffff8261596c565b6159b3868361596c565b95508019841693508086168417925050509392505050565b6000819050919050565b60006159f06159eb6159e68461455f565b6159cb565b61455f565b9050919050565b6000819050919050565b615a0a836159d5565b615a1e615a16826159f7565b848454615979565b825550505050565b600090565b615a33615a26565b615a3e818484615a01565b505050565b5b81811015615a6257615a57600082615a2b565b600181019050615a44565b5050565b601f821115615aa757615a7881615947565b615a818461595c565b81016020851015615a90578190505b615aa4615a9c8561595c565b830182615a43565b50505b505050565b600082821c905092915050565b6000615aca60001984600802615aac565b1980831691505092915050565b6000615ae38383615ab9565b9150826002028217905092915050565b615afc826144ad565b67ffffffffffffffff811115615b1557615b14614943565b5b615b1f8254614d5c565b615b2a828285615a66565b600060209050601f831160018114615b5d5760008415615b4b578287015190505b615b558582615ad7565b865550615bbd565b601f198416615b6b86615947565b60005b82811015615b9357848901518255600182019150602085019450602081019050615b6e565b86831015615bb05784890151615bac601f891682615ab9565b8355505b6001600288020188555050505b505050505050565b7f5072696365206d757374206265206174206c6561737420312077656900000000600082015250565b6000615bfb601c836144b8565b9150615c0682615bc5565b602082019050919050565b60006020820190508181036000830152615c2a81615bee565b9050919050565b7f4552433732313a20617070726f766520746f2063616c6c657200000000000000600082015250565b6000615c676019836144b8565b9150615c7282615c31565b602082019050919050565b60006020820190508181036000830152615c9681615c5a565b9050919050565b7f4552433732313a207472616e7366657220746f206e6f6e20455243373231526560008201527f63656976657220696d706c656d656e7465720000000000000000000000000000602082015250565b6000615cf96032836144b8565b9150615d0482615c9d565b604082019050919050565b60006020820190508181036000830152615d2881615cec565b9050919050565b7f436f756e7465723a2064656372656d656e74206f766572666c6f770000000000600082015250565b6000615d65601b836144b8565b9150615d7082615d2f565b602082019050919050565b60006020820190508181036000830152615d9481615d58565b9050919050565b600081519050919050565b600082825260208201905092915050565b6000615dc282615d9b565b615dcc8185615da6565b9350615ddc8185602086016144c9565b615de5816144f3565b840191505092915050565b6000608082019050615e0560008301876145f4565b615e1260208301866145f4565b615e1f604083018561468a565b8181036060830152615e318184615db7565b905095945050505050565b600081519050615e4b8161441e565b92915050565b600060208284031215615e6757615e666143e8565b5b6000615e7584828501615e3c565b91505092915050565b7f4e487b7100000000000000000000000000000000000000000000000000000000600052601260045260246000fdfea2646970667358221220cb3e60518109724573fd0e9a46a16953bcaa36c9504ab75e6c63b9852346a29464736f6c63430008130033",
  "linkReferences": {},
  "deployedLinkReferences": {}
}